{
	"data": {
		"bytecode": {
			"linkReferences": {},
			"object": "60806040523480156200001157600080fd5b50604051620025a3380380620025a3833981016040819052620000349162000297565b8451859085906200004d90600090602085019062000146565b5080516200006390600190602084019062000146565b505050620000987f9f2df0fed2c77648de5860a4cc508cd0818c85b8b8a1ab4ceeef8d981c8956a682620000c960201b60201c565b600b92909255600c55600880546001600160a01b0319166001600160a01b0390921691909117905550620003889050565b620000d58282620000d9565b5050565b620000e582826200011b565b620000d5576000828152600f602090815260408083206001600160a01b03851684529091529020805460ff191660011790555050565b6000918252600f602090815260408084206001600160a01b0393909316845291905290205460ff1690565b828054620001549062000335565b90600052602060002090601f016020900481019282620001785760008555620001c3565b82601f106200019357805160ff1916838001178555620001c3565b82800160010185558215620001c3579182015b82811115620001c3578251825591602001919060010190620001a6565b50620001d1929150620001d5565b5090565b5b80821115620001d15760008155600101620001d6565b600082601f830112620001fd578081fd5b81516001600160401b03808211156200021a576200021a62000372565b6040516020601f8401601f191682018101838111838210171562000242576200024262000372565b604052838252858401810187101562000259578485fd5b8492505b838310156200027c57858301810151828401820152918201916200025d565b838311156200028d57848185840101525b5095945050505050565b600080600080600060a08688031215620002af578081fd5b85516001600160401b0380821115620002c6578283fd5b620002d489838a01620001ec565b96506020880151915080821115620002ea578283fd5b50620002f988828901620001ec565b6040880151606089015160808a0151929750909550935090506001600160a01b038116811462000327578182fd5b809150509295509295909350565b6002810460018216806200034a57607f821691505b602082108114156200036c57634e487b7160e01b600052602260045260246000fd5b50919050565b634e487b7160e01b600052604160045260246000fd5b61220b80620003986000396000f3fe608060405234801561001057600080fd5b50600436106101a95760003560e01c80636afadefb116100f9578063b632c9e411610097578063c87b56dd11610071578063c87b56dd1461037c578063d53913931461038f578063e3278ad614610397578063e985e9c51461039f576101a9565b8063b632c9e414610343578063b88d4fde14610356578063c83b459014610369576101a9565b806387bb7ae0116100d357806387bb7ae01461030d57806391d148541461031557806395d89b4114610328578063a22cb46514610330576101a9565b80636afadefb146102d457806370a08231146102e7578063750e024c146102fa576101a9565b806323b872dd1161016657806342842e0e1161014057806342842e0e14610288578063569e35db1461029b5780636352211e146102ae57806364d7f44f146102c1576101a9565b806323b872dd1461023e57806324c141601461025157806335fe12d814610273576101a9565b806301ffc9a7146101ae578063065366ee146101d757806306fdde03146101ec578063081812fc14610201578063095ea7b3146102215780630b70557814610236575b600080fd5b6101c16101bc366004611955565b6103b2565b6040516101ce9190611ac9565b60405180910390f35b6101df6103fa565b6040516101ce9190611ad4565b6101f461040b565b6040516101ce9190611add565b61021461020f36600461198d565b61049d565b6040516101ce9190611a34565b61023461022f36600461190a565b6104e9565b005b610214610581565b61023461024c3660046117c9565b610590565b61026461025f36600461198d565b6105c8565b6040516101ce9392919061206a565b61027b6105ed565b6040516101ce9190611a85565b6102346102963660046117c9565b610644565b6101df6102a936600461198d565b61065f565b6102146102bc36600461198d565b610674565b6102346102cf3660046119a5565b6106a9565b6102346102e236600461177d565b6107b9565b6101df6102f536600461177d565b6108a2565b610234610308366004611933565b6108e6565b6101df61096b565b6101c1610323366004611933565b610971565b6101f461099c565b61023461033e3660046118d0565b6109ab565b61027b61035136600461177d565b610a79565b610234610364366004611804565b610ae5565b61023461037736600461190a565b610b1e565b6101f461038a36600461198d565b610c88565b6101df610d0b565b6101df610d2f565b6101c16103ad366004611797565b610d3b565b60006001600160e01b031982166380ac58cd60e01b14806103e357506001600160e01b03198216635b5e139f60e01b145b806103f257506103f282610d69565b90505b919050565b60006104066007610d82565b905090565b60606000805461041a90612110565b80601f016020809104026020016040519081016040528092919081815260200182805461044690612110565b80156104935780601f1061046857610100808354040283529160200191610493565b820191906000526020600020905b81548152906001019060200180831161047657829003601f168201915b5050505050905090565b60006104a882610d86565b6104cd5760405162461bcd60e51b81526004016104c490611e2c565b60405180910390fd5b506000908152600460205260409020546001600160a01b031690565b60006104f482610674565b9050806001600160a01b0316836001600160a01b031614156105285760405162461bcd60e51b81526004016104c490611f10565b806001600160a01b031661053a610da3565b6001600160a01b031614806105565750610556816103ad610da3565b6105725760405162461bcd60e51b81526004016104c490611cb9565b61057c8383610da7565b505050565b6008546001600160a01b031690565b6105a161059b610da3565b82610e15565b6105bd5760405162461bcd60e51b81526004016104c490611f88565b61057c838383610e9a565b6000908152600d6020526040902080546001820154600290920154909260ff90911690565b6060600a80548060200260200160405190810160405280929190818152602001828054801561049357602002820191906000526020600020905b815481526020019060010190808311610627575050505050905090565b61057c83838360405180602001604052806000815250610ae5565b6000908152600d602052604090206001015490565b6000818152600260205260408120546001600160a01b0316806103f25760405162461bcd60e51b81526004016104c490611d60565b6000838152600d60205260409020548260646106c683606e6120ae565b6106d0919061209a565b6106da9083612082565b116106f75760405162461bcd60e51b81526004016104c490612028565b6107237f9f2df0fed2c77648de5860a4cc508cd0818c85b8b8a1ab4ceeef8d981c8956a6610323610da3565b156107405760405162461bcd60e51b81526004016104c490611fd9565b6000848152600d6020526040902060018082018590556002909101805460ff1916909117905561076f84610fc7565b6107a957600a80546001810182556000919091527fc65a7bb8d6351c1cf70c95a316cc6a92839c986682d98bc35f958f4883f9d2a8018490555b6107b382856104e9565b50505050565b6107c3600761102d565b60006107cf6007610d82565b90506107da81610674565b6001600160a01b0316336001600160a01b03161461080a5760405162461bcd60e51b81526004016104c490611f51565b61081d61081682610674565b8383610590565b61082682611036565b61087657600980546001810182556000919091527f6e1540171b6c0c960b71a7020d9f60077f6af931a8bbf590da0223dacf75c7af0180546001600160a01b0319166001600160a01b0384161790555b6001600160a01b039091166000908152600e602090815260408220805460018101825590835291200155565b60006001600160a01b0382166108ca5760405162461bcd60e51b81526004016104c490611d16565b506001600160a01b031660009081526003602052604090205490565b600c546108f36006610d82565b106109105760405162461bcd60e51b81526004016104c490611c82565b6103e88261091c610d2f565b6109269190612082565b11156109445760405162461bcd60e51b81526004016104c490611da9565b60005b8281101561057c57610958826110a6565b50806109638161214b565b915050610947565b600b5490565b6000918252600f602090815260408084206001600160a01b0393909316845291905290205460ff1690565b60606001805461041a90612110565b6109b3610da3565b6001600160a01b0316826001600160a01b031614156109e45760405162461bcd60e51b81526004016104c490611bbd565b80600560006109f1610da3565b6001600160a01b03908116825260208083019390935260409182016000908120918716808252919093529120805460ff191692151592909217909155610a35610da3565b6001600160a01b03167f17307eab39ab6107e8899845ad3d59bd9653f200f220920489ca2b5937696c3183604051610a6d9190611ac9565b60405180910390a35050565b6001600160a01b0381166000908152600e6020908152604091829020805483518184028101840190945280845260609392830182828015610ad957602002820191906000526020600020905b815481526020019060010190808311610ac5575b50505050509050919050565b610af6610af0610da3565b83610e15565b610b125760405162461bcd60e51b81526004016104c490611f88565b6107b384848484611164565b6000818152600d602052604090208054600190910154829190806064610b4584606e6120ae565b610b4f919061209a565b610b599084612082565b11610b765760405162461bcd60e51b81526004016104c490612028565b6000610b8185610674565b6000868152600d6020526040902060010154909150610ba1828888610590565b610baa87611036565b610bfa57600980546001810182556000919091527f6e1540171b6c0c960b71a7020d9f60077f6af931a8bbf590da0223dacf75c7af0180546001600160a01b0319166001600160a01b0389161790555b6001600160a01b0387166000908152600e6020908152604082208054600181018255908352912001869055610c2f8287611197565b610c3886611320565b6040805160608101825291825260006020808401828152848401838152998352600d9091529190209151825551600182015594516002909501805460ff1916951515959095179094555050505050565b6060610c9382610d86565b610caf5760405162461bcd60e51b81526004016104c490611ec1565b6000610cb9611439565b90506000815111610cd95760405180602001604052806000815250610d04565b80610ce38461144b565b604051602001610cf4929190611a05565b6040516020818303038152906040525b9392505050565b7f9f2df0fed2c77648de5860a4cc508cd0818c85b8b8a1ab4ceeef8d981c8956a681565b60006104066006610d82565b6001600160a01b03918216600090815260056020908152604080832093909416825291909152205460ff1690565b6001600160e01b031981166301ffc9a760e01b14919050565b5490565b6000908152600260205260409020546001600160a01b0316151590565b3390565b600081815260046020526040902080546001600160a01b0319166001600160a01b0384169081179091558190610ddc82610674565b6001600160a01b03167f8c5be1e5ebec7d5bd14f71427d1e84f3dd0314c0f7b2291e5b200ac8c7c3b92560405160405180910390a45050565b6000610e2082610d86565b610e3c5760405162461bcd60e51b81526004016104c490611bf4565b6000610e4783610674565b9050806001600160a01b0316846001600160a01b03161480610e825750836001600160a01b0316610e778461049d565b6001600160a01b0316145b80610e925750610e928185610d3b565b949350505050565b826001600160a01b0316610ead82610674565b6001600160a01b031614610ed35760405162461bcd60e51b81526004016104c490611e78565b6001600160a01b038216610ef95760405162461bcd60e51b81526004016104c490611b79565b610f0483838361057c565b610f0f600082610da7565b6001600160a01b0383166000908152600360205260408120805460019290610f389084906120cd565b90915550506001600160a01b0382166000908152600360205260408120805460019290610f66908490612082565b909155505060008181526002602052604080822080546001600160a01b0319166001600160a01b0386811691821790925591518493918716917fddf252ad1be2c89b69c2b068fc378daa952ba7f163c4a11628f55a4df523b3ef91a4505050565b6000805b600a548110156110245782600a8281548110610ff757634e487b7160e01b600052603260045260246000fd5b906000526020600020015414156110125760019150506103f5565b8061101c8161214b565b915050610fcb565b50600092915050565b80546001019055565b6000805b60095481101561102457826001600160a01b03166009828154811061106f57634e487b7160e01b600052603260045260246000fd5b6000918252602090912001546001600160a01b031614156110945760019150506103f5565b8061109e8161214b565b91505061103a565b60006110d47f9f2df0fed2c77648de5860a4cc508cd0818c85b8b8a1ab4ceeef8d981c8956a6610323610da3565b6110f05760405162461bcd60e51b81526004016104c490611c40565b6110fa600661102d565b60006111066006610d82565b90506111128382611566565b60408051606081018252600b54815260006020808301828152838501838152868452600d90925293909120915182559151600182015590516002909101805460ff191691151591909117905592915050565b61116f848484610e9a565b61117b84848484611645565b6107b35760405162461bcd60e51b81526004016104c490611af0565b6001600160a01b0382166000908152600e6020526040812054905b818110156107b3576001600160a01b0384166000908152600e602052604090208054849190839081106111f557634e487b7160e01b600052603260045260246000fd5b9060005260206000200154141561130e576000611213826001612082565b90505b828110156112c1576001600160a01b0385166000908152600e6020526040902080548290811061125657634e487b7160e01b600052603260045260246000fd5b60009182526020808320909101546001600160a01b0388168352600e90915260409091206112856001846120cd565b815481106112a357634e487b7160e01b600052603260045260246000fd5b600091825260209091200155806112b98161214b565b915050611216565b506001600160a01b0384166000908152600e602052604090208054806112f757634e487b7160e01b600052603160045260246000fd5b600190038181906000526020600020016000905590555b806113188161214b565b9150506111b2565b600a5460005b8181101561057c5782600a828154811061135057634e487b7160e01b600052603260045260246000fd5b9060005260206000200154141561142757600061136e826001612082565b90505b828110156113f057600a818154811061139a57634e487b7160e01b600052603260045260246000fd5b9060005260206000200154600a6001836113b491906120cd565b815481106113d257634e487b7160e01b600052603260045260246000fd5b600091825260209091200155806113e88161214b565b915050611371565b50600a80548061141057634e487b7160e01b600052603160045260246000fd5b600190038181906000526020600020016000905590555b806114318161214b565b915050611326565b60408051602081019091526000815290565b60608161147057506040805180820190915260018152600360fc1b60208201526103f5565b8160005b811561149a57806114848161214b565b91506114939050600a8361209a565b9150611474565b60008167ffffffffffffffff8111156114c357634e487b7160e01b600052604160045260246000fd5b6040519080825280601f01601f1916602001820160405280156114ed576020820181803683370190505b5090505b8415610e92576115026001836120cd565b915061150f600a86612166565b61151a906030612082565b60f81b81838151811061153d57634e487b7160e01b600052603260045260246000fd5b60200101906001600160f81b031916908160001a90535061155f600a8661209a565b94506114f1565b6001600160a01b03821661158c5760405162461bcd60e51b81526004016104c490611df7565b61159581610d86565b156115b25760405162461bcd60e51b81526004016104c490611b42565b6115be6000838361057c565b6001600160a01b03821660009081526003602052604081208054600192906115e7908490612082565b909155505060008181526002602052604080822080546001600160a01b0319166001600160a01b03861690811790915590518392907fddf252ad1be2c89b69c2b068fc378daa952ba7f163c4a11628f55a4df523b3ef908290a45050565b6000611659846001600160a01b0316611760565b1561175557836001600160a01b031663150b7a02611675610da3565b8786866040518563ffffffff1660e01b81526004016116979493929190611a48565b602060405180830381600087803b1580156116b157600080fd5b505af19250505080156116e1575060408051601f3d908101601f191682019092526116de91810190611971565b60015b61173b573d80801561170f576040519150601f19603f3d011682016040523d82523d6000602084013e611714565b606091505b5080516117335760405162461bcd60e51b81526004016104c490611af0565b805181602001fd5b6001600160e01b031916630a85bd0160e11b149050610e92565b506001949350505050565b3b151590565b80356001600160a01b03811681146103f557600080fd5b60006020828403121561178e578081fd5b610d0482611766565b600080604083850312156117a9578081fd5b6117b283611766565b91506117c060208401611766565b90509250929050565b6000806000606084860312156117dd578081fd5b6117e684611766565b92506117f460208501611766565b9150604084013590509250925092565b60008060008060808587031215611819578081fd5b61182285611766565b93506020611831818701611766565b935060408601359250606086013567ffffffffffffffff80821115611854578384fd5b818801915088601f830112611867578384fd5b813581811115611879576118796121a6565b604051601f8201601f191681018501838111828210171561189c5761189c6121a6565b60405281815283820185018b10156118b2578586fd5b81858501868301379081019093019390935250939692955090935050565b600080604083850312156118e2578182fd5b6118eb83611766565b9150602083013580151581146118ff578182fd5b809150509250929050565b6000806040838503121561191c578182fd5b61192583611766565b946020939093013593505050565b60008060408385031215611945578182fd5b823591506117c060208401611766565b600060208284031215611966578081fd5b8135610d04816121bc565b600060208284031215611982578081fd5b8151610d04816121bc565b60006020828403121561199e578081fd5b5035919050565b6000806000606084860312156119b9578283fd5b83359250602084013591506119d060408501611766565b90509250925092565b600081518084526119f18160208601602086016120e4565b601f01601f19169290920160200192915050565b60008351611a178184602088016120e4565b835190830190611a2b8183602088016120e4565b01949350505050565b6001600160a01b0391909116815260200190565b6001600160a01b0385811682528416602082015260408101839052608060608201819052600090611a7b908301846119d9565b9695505050505050565b6020808252825182820181905260009190848201906040850190845b81811015611abd57835183529284019291840191600101611aa1565b50909695505050505050565b901515815260200190565b90815260200190565b600060208252610d0460208301846119d9565b60208082526032908201527f4552433732313a207472616e7366657220746f206e6f6e20455243373231526560408201527131b2b4bb32b91034b6b83632b6b2b73a32b960711b606082015260800190565b6020808252601c908201527f4552433732313a20746f6b656e20616c7265616479206d696e74656400000000604082015260600190565b60208082526024908201527f4552433732313a207472616e7366657220746f20746865207a65726f206164646040820152637265737360e01b606082015260800190565b60208082526019908201527f4552433732313a20617070726f766520746f2063616c6c657200000000000000604082015260600190565b6020808252602c908201527f4552433732313a206f70657261746f7220717565727920666f72206e6f6e657860408201526b34b9ba32b73a103a37b5b2b760a11b606082015260800190565b60208082526022908201527f55736572206d7573742068617665206d696e74657220726f6c6520746f206d696040820152611b9d60f21b606082015260800190565b6020808252601e908201527f4d6178696d756d207469636b6574206c696d6974206578636565646564210000604082015260600190565b60208082526038908201527f4552433732313a20617070726f76652063616c6c6572206973206e6f74206f7760408201527f6e6572206e6f7220617070726f76656420666f7220616c6c0000000000000000606082015260800190565b6020808252602a908201527f4552433732313a2062616c616e636520717565727920666f7220746865207a65604082015269726f206164647265737360b01b606082015260800190565b60208082526029908201527f4552433732313a206f776e657220717565727920666f72206e6f6e657869737460408201526832b73a103a37b5b2b760b91b606082015260800190565b6020808252602e908201527f4e756d626572206f66207469636b6574732065786365656473206d6178696d7560408201526d1b481d1a58dad95d0818dbdd5b9d60921b606082015260800190565b6020808252818101527f4552433732313a206d696e7420746f20746865207a65726f2061646472657373604082015260600190565b6020808252602c908201527f4552433732313a20617070726f76656420717565727920666f72206e6f6e657860408201526b34b9ba32b73a103a37b5b2b760a11b606082015260800190565b60208082526029908201527f4552433732313a207472616e73666572206f6620746f6b656e2074686174206960408201526839903737ba1037bbb760b91b606082015260800190565b6020808252602f908201527f4552433732314d657461646174613a2055524920717565727920666f72206e6f60408201526e3732bc34b9ba32b73a103a37b5b2b760891b606082015260800190565b60208082526021908201527f4552433732313a20617070726f76616c20746f2063757272656e74206f776e656040820152603960f91b606082015260800190565b6020808252601d908201527f4f6e6c7920696e697469616c20707572636861736520616c6c6f776564000000604082015260600190565b60208082526031908201527f4552433732313a207472616e736665722063616c6c6572206973206e6f74206f6040820152701ddb995c881b9bdc88185c1c1c9bdd9959607a1b606082015260800190565b6020808252602f908201527f46756e6374696f6e616c697479206f6e6c7920616c6c6f77656420666f72207360408201526e1958dbdb99185c9e481b585c9ad95d608a1b606082015260800190565b60208082526022908201527f52652d73656c6c696e67207072696365206973206d6f7265207468616e203131604082015261302560f01b606082015260800190565b92835260208301919091521515604082015260600190565b600082198211156120955761209561217a565b500190565b6000826120a9576120a9612190565b500490565b60008160001904831182151516156120c8576120c861217a565b500290565b6000828210156120df576120df61217a565b500390565b60005b838110156120ff5781810151838201526020016120e7565b838111156107b35750506000910152565b60028104600182168061212457607f821691505b6020821081141561214557634e487b7160e01b600052602260045260246000fd5b50919050565b600060001982141561215f5761215f61217a565b5060010190565b60008261217557612175612190565b500690565b634e487b7160e01b600052601160045260246000fd5b634e487b7160e01b600052601260045260246000fd5b634e487b7160e01b600052604160045260246000fd5b6001600160e01b0319811681146121d257600080fd5b5056fea2646970667358221220553ff9a1adba78c078a914b4ec068eca4f26e28d7ff65bef28a5058a5c99d7bf64736f6c63430008000033",
			"opcodes": "PUSH1 0x80 PUSH1 0x40 MSTORE CALLVALUE DUP1 ISZERO PUSH3 0x11 JUMPI PUSH1 0x0 DUP1 REVERT JUMPDEST POP PUSH1 0x40 MLOAD PUSH3 0x25A3 CODESIZE SUB DUP1 PUSH3 0x25A3 DUP4 CODECOPY DUP2 ADD PUSH1 0x40 DUP2 SWAP1 MSTORE PUSH3 0x34 SWAP2 PUSH3 0x297 JUMP JUMPDEST DUP5 MLOAD DUP6 SWAP1 DUP6 SWAP1 PUSH3 0x4D SWAP1 PUSH1 0x0 SWAP1 PUSH1 0x20 DUP6 ADD SWAP1 PUSH3 0x146 JUMP JUMPDEST POP DUP1 MLOAD PUSH3 0x63 SWAP1 PUSH1 0x1 SWAP1 PUSH1 0x20 DUP5 ADD SWAP1 PUSH3 0x146 JUMP JUMPDEST POP POP POP PUSH3 0x98 PUSH32 0x9F2DF0FED2C77648DE5860A4CC508CD0818C85B8B8A1AB4CEEEF8D981C8956A6 DUP3 PUSH3 0xC9 PUSH1 0x20 SHL PUSH1 0x20 SHR JUMP JUMPDEST PUSH1 0xB SWAP3 SWAP1 SWAP3 SSTORE PUSH1 0xC SSTORE PUSH1 0x8 DUP1 SLOAD PUSH1 0x1 PUSH1 0x1 PUSH1 0xA0 SHL SUB NOT AND PUSH1 0x1 PUSH1 0x1 PUSH1 0xA0 SHL SUB SWAP1 SWAP3 AND SWAP2 SWAP1 SWAP2 OR SWAP1 SSTORE POP PUSH3 0x388 SWAP1 POP JUMP JUMPDEST PUSH3 0xD5 DUP3 DUP3 PUSH3 0xD9 JUMP JUMPDEST POP POP JUMP JUMPDEST PUSH3 0xE5 DUP3 DUP3 PUSH3 0x11B JUMP JUMPDEST PUSH3 0xD5 JUMPI PUSH1 0x0 DUP3 DUP2 MSTORE PUSH1 0xF PUSH1 0x20 SWAP1 DUP2 MSTORE PUSH1 0x40 DUP1 DUP4 KECCAK256 PUSH1 0x1 PUSH1 0x1 PUSH1 0xA0 SHL SUB DUP6 AND DUP5 MSTORE SWAP1 SWAP2 MSTORE SWAP1 KECCAK256 DUP1 SLOAD PUSH1 0xFF NOT AND PUSH1 0x1 OR SWAP1 SSTORE POP POP JUMP JUMPDEST PUSH1 0x0 SWAP2 DUP3 MSTORE PUSH1 0xF PUSH1 0x20 SWAP1 DUP2 MSTORE PUSH1 0x40 DUP1 DUP5 KECCAK256 PUSH1 0x1 PUSH1 0x1 PUSH1 0xA0 SHL SUB SWAP4 SWAP1 SWAP4 AND DUP5 MSTORE SWAP2 SWAP1 MSTORE SWAP1 KECCAK256 SLOAD PUSH1 0xFF AND SWAP1 JUMP JUMPDEST DUP3 DUP1 SLOAD PUSH3 0x154 SWAP1 PUSH3 0x335 JUMP JUMPDEST SWAP1 PUSH1 0x0 MSTORE PUSH1 0x20 PUSH1 0x0 KECCAK256 SWAP1 PUSH1 0x1F ADD PUSH1 0x20 SWAP1 DIV DUP2 ADD SWAP3 DUP3 PUSH3 0x178 JUMPI PUSH1 0x0 DUP6 SSTORE PUSH3 0x1C3 JUMP JUMPDEST DUP3 PUSH1 0x1F LT PUSH3 0x193 JUMPI DUP1 MLOAD PUSH1 0xFF NOT AND DUP4 DUP1 ADD OR DUP6 SSTORE PUSH3 0x1C3 JUMP JUMPDEST DUP3 DUP1 ADD PUSH1 0x1 ADD DUP6 SSTORE DUP3 ISZERO PUSH3 0x1C3 JUMPI SWAP2 DUP3 ADD JUMPDEST DUP3 DUP2 GT ISZERO PUSH3 0x1C3 JUMPI DUP3 MLOAD DUP3 SSTORE SWAP2 PUSH1 0x20 ADD SWAP2 SWAP1 PUSH1 0x1 ADD SWAP1 PUSH3 0x1A6 JUMP JUMPDEST POP PUSH3 0x1D1 SWAP3 SWAP2 POP PUSH3 0x1D5 JUMP JUMPDEST POP SWAP1 JUMP JUMPDEST JUMPDEST DUP1 DUP3 GT ISZERO PUSH3 0x1D1 JUMPI PUSH1 0x0 DUP2 SSTORE PUSH1 0x1 ADD PUSH3 0x1D6 JUMP JUMPDEST PUSH1 0x0 DUP3 PUSH1 0x1F DUP4 ADD SLT PUSH3 0x1FD JUMPI DUP1 DUP2 REVERT JUMPDEST DUP2 MLOAD PUSH1 0x1 PUSH1 0x1 PUSH1 0x40 SHL SUB DUP1 DUP3 GT ISZERO PUSH3 0x21A JUMPI PUSH3 0x21A PUSH3 0x372 JUMP JUMPDEST PUSH1 0x40 MLOAD PUSH1 0x20 PUSH1 0x1F DUP5 ADD PUSH1 0x1F NOT AND DUP3 ADD DUP2 ADD DUP4 DUP2 GT DUP4 DUP3 LT OR ISZERO PUSH3 0x242 JUMPI PUSH3 0x242 PUSH3 0x372 JUMP JUMPDEST PUSH1 0x40 MSTORE DUP4 DUP3 MSTORE DUP6 DUP5 ADD DUP2 ADD DUP8 LT ISZERO PUSH3 0x259 JUMPI DUP5 DUP6 REVERT JUMPDEST DUP5 SWAP3 POP JUMPDEST DUP4 DUP4 LT ISZERO PUSH3 0x27C JUMPI DUP6 DUP4 ADD DUP2 ADD MLOAD DUP3 DUP5 ADD DUP3 ADD MSTORE SWAP2 DUP3 ADD SWAP2 PUSH3 0x25D JUMP JUMPDEST DUP4 DUP4 GT ISZERO PUSH3 0x28D JUMPI DUP5 DUP2 DUP6 DUP5 ADD ADD MSTORE JUMPDEST POP SWAP6 SWAP5 POP POP POP POP POP JUMP JUMPDEST PUSH1 0x0 DUP1 PUSH1 0x0 DUP1 PUSH1 0x0 PUSH1 0xA0 DUP7 DUP9 SUB SLT ISZERO PUSH3 0x2AF JUMPI DUP1 DUP2 REVERT JUMPDEST DUP6 MLOAD PUSH1 0x1 PUSH1 0x1 PUSH1 0x40 SHL SUB DUP1 DUP3 GT ISZERO PUSH3 0x2C6 JUMPI DUP3 DUP4 REVERT JUMPDEST PUSH3 0x2D4 DUP10 DUP4 DUP11 ADD PUSH3 0x1EC JUMP JUMPDEST SWAP7 POP PUSH1 0x20 DUP9 ADD MLOAD SWAP2 POP DUP1 DUP3 GT ISZERO PUSH3 0x2EA JUMPI DUP3 DUP4 REVERT JUMPDEST POP PUSH3 0x2F9 DUP9 DUP3 DUP10 ADD PUSH3 0x1EC JUMP JUMPDEST PUSH1 0x40 DUP9 ADD MLOAD PUSH1 0x60 DUP10 ADD MLOAD PUSH1 0x80 DUP11 ADD MLOAD SWAP3 SWAP8 POP SWAP1 SWAP6 POP SWAP4 POP SWAP1 POP PUSH1 0x1 PUSH1 0x1 PUSH1 0xA0 SHL SUB DUP2 AND DUP2 EQ PUSH3 0x327 JUMPI DUP2 DUP3 REVERT JUMPDEST DUP1 SWAP2 POP POP SWAP3 SWAP6 POP SWAP3 SWAP6 SWAP1 SWAP4 POP JUMP JUMPDEST PUSH1 0x2 DUP2 DIV PUSH1 0x1 DUP3 AND DUP1 PUSH3 0x34A JUMPI PUSH1 0x7F DUP3 AND SWAP2 POP JUMPDEST PUSH1 0x20 DUP3 LT DUP2 EQ ISZERO PUSH3 0x36C JUMPI PUSH4 0x4E487B71 PUSH1 0xE0 SHL PUSH1 0x0 MSTORE PUSH1 0x22 PUSH1 0x4 MSTORE PUSH1 0x24 PUSH1 0x0 REVERT JUMPDEST POP SWAP2 SWAP1 POP JUMP JUMPDEST PUSH4 0x4E487B71 PUSH1 0xE0 SHL PUSH1 0x0 MSTORE PUSH1 0x41 PUSH1 0x4 MSTORE PUSH1 0x24 PUSH1 0x0 REVERT JUMPDEST PUSH2 0x220B DUP1 PUSH3 0x398 PUSH1 0x0 CODECOPY PUSH1 0x0 RETURN INVALID PUSH1 0x80 PUSH1 0x40 MSTORE CALLVALUE DUP1 ISZERO PUSH2 0x10 JUMPI PUSH1 0x0 DUP1 REVERT JUMPDEST POP PUSH1 0x4 CALLDATASIZE LT PUSH2 0x1A9 JUMPI PUSH1 0x0 CALLDATALOAD PUSH1 0xE0 SHR DUP1 PUSH4 0x6AFADEFB GT PUSH2 0xF9 JUMPI DUP1 PUSH4 0xB632C9E4 GT PUSH2 0x97 JUMPI DUP1 PUSH4 0xC87B56DD GT PUSH2 0x71 JUMPI DUP1 PUSH4 0xC87B56DD EQ PUSH2 0x37C JUMPI DUP1 PUSH4 0xD5391393 EQ PUSH2 0x38F JUMPI DUP1 PUSH4 0xE3278AD6 EQ PUSH2 0x397 JUMPI DUP1 PUSH4 0xE985E9C5 EQ PUSH2 0x39F JUMPI PUSH2 0x1A9 JUMP JUMPDEST DUP1 PUSH4 0xB632C9E4 EQ PUSH2 0x343 JUMPI DUP1 PUSH4 0xB88D4FDE EQ PUSH2 0x356 JUMPI DUP1 PUSH4 0xC83B4590 EQ PUSH2 0x369 JUMPI PUSH2 0x1A9 JUMP JUMPDEST DUP1 PUSH4 0x87BB7AE0 GT PUSH2 0xD3 JUMPI DUP1 PUSH4 0x87BB7AE0 EQ PUSH2 0x30D JUMPI DUP1 PUSH4 0x91D14854 EQ PUSH2 0x315 JUMPI DUP1 PUSH4 0x95D89B41 EQ PUSH2 0x328 JUMPI DUP1 PUSH4 0xA22CB465 EQ PUSH2 0x330 JUMPI PUSH2 0x1A9 JUMP JUMPDEST DUP1 PUSH4 0x6AFADEFB EQ PUSH2 0x2D4 JUMPI DUP1 PUSH4 0x70A08231 EQ PUSH2 0x2E7 JUMPI DUP1 PUSH4 0x750E024C EQ PUSH2 0x2FA JUMPI PUSH2 0x1A9 JUMP JUMPDEST DUP1 PUSH4 0x23B872DD GT PUSH2 0x166 JUMPI DUP1 PUSH4 0x42842E0E GT PUSH2 0x140 JUMPI DUP1 PUSH4 0x42842E0E EQ PUSH2 0x288 JUMPI DUP1 PUSH4 0x569E35DB EQ PUSH2 0x29B JUMPI DUP1 PUSH4 0x6352211E EQ PUSH2 0x2AE JUMPI DUP1 PUSH4 0x64D7F44F EQ PUSH2 0x2C1 JUMPI PUSH2 0x1A9 JUMP JUMPDEST DUP1 PUSH4 0x23B872DD EQ PUSH2 0x23E JUMPI DUP1 PUSH4 0x24C14160 EQ PUSH2 0x251 JUMPI DUP1 PUSH4 0x35FE12D8 EQ PUSH2 0x273 JUMPI PUSH2 0x1A9 JUMP JUMPDEST DUP1 PUSH4 0x1FFC9A7 EQ PUSH2 0x1AE JUMPI DUP1 PUSH4 0x65366EE EQ PUSH2 0x1D7 JUMPI DUP1 PUSH4 0x6FDDE03 EQ PUSH2 0x1EC JUMPI DUP1 PUSH4 0x81812FC EQ PUSH2 0x201 JUMPI DUP1 PUSH4 0x95EA7B3 EQ PUSH2 0x221 JUMPI DUP1 PUSH4 0xB705578 EQ PUSH2 0x236 JUMPI JUMPDEST PUSH1 0x0 DUP1 REVERT JUMPDEST PUSH2 0x1C1 PUSH2 0x1BC CALLDATASIZE PUSH1 0x4 PUSH2 0x1955 JUMP JUMPDEST PUSH2 0x3B2 JUMP JUMPDEST PUSH1 0x40 MLOAD PUSH2 0x1CE SWAP2 SWAP1 PUSH2 0x1AC9 JUMP JUMPDEST PUSH1 0x40 MLOAD DUP1 SWAP2 SUB SWAP1 RETURN JUMPDEST PUSH2 0x1DF PUSH2 0x3FA JUMP JUMPDEST PUSH1 0x40 MLOAD PUSH2 0x1CE SWAP2 SWAP1 PUSH2 0x1AD4 JUMP JUMPDEST PUSH2 0x1F4 PUSH2 0x40B JUMP JUMPDEST PUSH1 0x40 MLOAD PUSH2 0x1CE SWAP2 SWAP1 PUSH2 0x1ADD JUMP JUMPDEST PUSH2 0x214 PUSH2 0x20F CALLDATASIZE PUSH1 0x4 PUSH2 0x198D JUMP JUMPDEST PUSH2 0x49D JUMP JUMPDEST PUSH1 0x40 MLOAD PUSH2 0x1CE SWAP2 SWAP1 PUSH2 0x1A34 JUMP JUMPDEST PUSH2 0x234 PUSH2 0x22F CALLDATASIZE PUSH1 0x4 PUSH2 0x190A JUMP JUMPDEST PUSH2 0x4E9 JUMP JUMPDEST STOP JUMPDEST PUSH2 0x214 PUSH2 0x581 JUMP JUMPDEST PUSH2 0x234 PUSH2 0x24C CALLDATASIZE PUSH1 0x4 PUSH2 0x17C9 JUMP JUMPDEST PUSH2 0x590 JUMP JUMPDEST PUSH2 0x264 PUSH2 0x25F CALLDATASIZE PUSH1 0x4 PUSH2 0x198D JUMP JUMPDEST PUSH2 0x5C8 JUMP JUMPDEST PUSH1 0x40 MLOAD PUSH2 0x1CE SWAP4 SWAP3 SWAP2 SWAP1 PUSH2 0x206A JUMP JUMPDEST PUSH2 0x27B PUSH2 0x5ED JUMP JUMPDEST PUSH1 0x40 MLOAD PUSH2 0x1CE SWAP2 SWAP1 PUSH2 0x1A85 JUMP JUMPDEST PUSH2 0x234 PUSH2 0x296 CALLDATASIZE PUSH1 0x4 PUSH2 0x17C9 JUMP JUMPDEST PUSH2 0x644 JUMP JUMPDEST PUSH2 0x1DF PUSH2 0x2A9 CALLDATASIZE PUSH1 0x4 PUSH2 0x198D JUMP JUMPDEST PUSH2 0x65F JUMP JUMPDEST PUSH2 0x214 PUSH2 0x2BC CALLDATASIZE PUSH1 0x4 PUSH2 0x198D JUMP JUMPDEST PUSH2 0x674 JUMP JUMPDEST PUSH2 0x234 PUSH2 0x2CF CALLDATASIZE PUSH1 0x4 PUSH2 0x19A5 JUMP JUMPDEST PUSH2 0x6A9 JUMP JUMPDEST PUSH2 0x234 PUSH2 0x2E2 CALLDATASIZE PUSH1 0x4 PUSH2 0x177D JUMP JUMPDEST PUSH2 0x7B9 JUMP JUMPDEST PUSH2 0x1DF PUSH2 0x2F5 CALLDATASIZE PUSH1 0x4 PUSH2 0x177D JUMP JUMPDEST PUSH2 0x8A2 JUMP JUMPDEST PUSH2 0x234 PUSH2 0x308 CALLDATASIZE PUSH1 0x4 PUSH2 0x1933 JUMP JUMPDEST PUSH2 0x8E6 JUMP JUMPDEST PUSH2 0x1DF PUSH2 0x96B JUMP JUMPDEST PUSH2 0x1C1 PUSH2 0x323 CALLDATASIZE PUSH1 0x4 PUSH2 0x1933 JUMP JUMPDEST PUSH2 0x971 JUMP JUMPDEST PUSH2 0x1F4 PUSH2 0x99C JUMP JUMPDEST PUSH2 0x234 PUSH2 0x33E CALLDATASIZE PUSH1 0x4 PUSH2 0x18D0 JUMP JUMPDEST PUSH2 0x9AB JUMP JUMPDEST PUSH2 0x27B PUSH2 0x351 CALLDATASIZE PUSH1 0x4 PUSH2 0x177D JUMP JUMPDEST PUSH2 0xA79 JUMP JUMPDEST PUSH2 0x234 PUSH2 0x364 CALLDATASIZE PUSH1 0x4 PUSH2 0x1804 JUMP JUMPDEST PUSH2 0xAE5 JUMP JUMPDEST PUSH2 0x234 PUSH2 0x377 CALLDATASIZE PUSH1 0x4 PUSH2 0x190A JUMP JUMPDEST PUSH2 0xB1E JUMP JUMPDEST PUSH2 0x1F4 PUSH2 0x38A CALLDATASIZE PUSH1 0x4 PUSH2 0x198D JUMP JUMPDEST PUSH2 0xC88 JUMP JUMPDEST PUSH2 0x1DF PUSH2 0xD0B JUMP JUMPDEST PUSH2 0x1DF PUSH2 0xD2F JUMP JUMPDEST PUSH2 0x1C1 PUSH2 0x3AD CALLDATASIZE PUSH1 0x4 PUSH2 0x1797 JUMP JUMPDEST PUSH2 0xD3B JUMP JUMPDEST PUSH1 0x0 PUSH1 0x1 PUSH1 0x1 PUSH1 0xE0 SHL SUB NOT DUP3 AND PUSH4 0x80AC58CD PUSH1 0xE0 SHL EQ DUP1 PUSH2 0x3E3 JUMPI POP PUSH1 0x1 PUSH1 0x1 PUSH1 0xE0 SHL SUB NOT DUP3 AND PUSH4 0x5B5E139F PUSH1 0xE0 SHL EQ JUMPDEST DUP1 PUSH2 0x3F2 JUMPI POP PUSH2 0x3F2 DUP3 PUSH2 0xD69 JUMP JUMPDEST SWAP1 POP JUMPDEST SWAP2 SWAP1 POP JUMP JUMPDEST PUSH1 0x0 PUSH2 0x406 PUSH1 0x7 PUSH2 0xD82 JUMP JUMPDEST SWAP1 POP SWAP1 JUMP JUMPDEST PUSH1 0x60 PUSH1 0x0 DUP1 SLOAD PUSH2 0x41A SWAP1 PUSH2 0x2110 JUMP JUMPDEST DUP1 PUSH1 0x1F ADD PUSH1 0x20 DUP1 SWAP2 DIV MUL PUSH1 0x20 ADD PUSH1 0x40 MLOAD SWAP1 DUP2 ADD PUSH1 0x40 MSTORE DUP1 SWAP3 SWAP2 SWAP1 DUP2 DUP2 MSTORE PUSH1 0x20 ADD DUP3 DUP1 SLOAD PUSH2 0x446 SWAP1 PUSH2 0x2110 JUMP JUMPDEST DUP1 ISZERO PUSH2 0x493 JUMPI DUP1 PUSH1 0x1F LT PUSH2 0x468 JUMPI PUSH2 0x100 DUP1 DUP4 SLOAD DIV MUL DUP4 MSTORE SWAP2 PUSH1 0x20 ADD SWAP2 PUSH2 0x493 JUMP JUMPDEST DUP3 ADD SWAP2 SWAP1 PUSH1 0x0 MSTORE PUSH1 0x20 PUSH1 0x0 KECCAK256 SWAP1 JUMPDEST DUP2 SLOAD DUP2 MSTORE SWAP1 PUSH1 0x1 ADD SWAP1 PUSH1 0x20 ADD DUP1 DUP4 GT PUSH2 0x476 JUMPI DUP3 SWAP1 SUB PUSH1 0x1F AND DUP3 ADD SWAP2 JUMPDEST POP POP POP POP POP SWAP1 POP SWAP1 JUMP JUMPDEST PUSH1 0x0 PUSH2 0x4A8 DUP3 PUSH2 0xD86 JUMP JUMPDEST PUSH2 0x4CD JUMPI PUSH1 0x40 MLOAD PUSH3 0x461BCD PUSH1 0xE5 SHL DUP2 MSTORE PUSH1 0x4 ADD PUSH2 0x4C4 SWAP1 PUSH2 0x1E2C JUMP JUMPDEST PUSH1 0x40 MLOAD DUP1 SWAP2 SUB SWAP1 REVERT JUMPDEST POP PUSH1 0x0 SWAP1 DUP2 MSTORE PUSH1 0x4 PUSH1 0x20 MSTORE PUSH1 0x40 SWAP1 KECCAK256 SLOAD PUSH1 0x1 PUSH1 0x1 PUSH1 0xA0 SHL SUB AND SWAP1 JUMP JUMPDEST PUSH1 0x0 PUSH2 0x4F4 DUP3 PUSH2 0x674 JUMP JUMPDEST SWAP1 POP DUP1 PUSH1 0x1 PUSH1 0x1 PUSH1 0xA0 SHL SUB AND DUP4 PUSH1 0x1 PUSH1 0x1 PUSH1 0xA0 SHL SUB AND EQ ISZERO PUSH2 0x528 JUMPI PUSH1 0x40 MLOAD PUSH3 0x461BCD PUSH1 0xE5 SHL DUP2 MSTORE PUSH1 0x4 ADD PUSH2 0x4C4 SWAP1 PUSH2 0x1F10 JUMP JUMPDEST DUP1 PUSH1 0x1 PUSH1 0x1 PUSH1 0xA0 SHL SUB AND PUSH2 0x53A PUSH2 0xDA3 JUMP JUMPDEST PUSH1 0x1 PUSH1 0x1 PUSH1 0xA0 SHL SUB AND EQ DUP1 PUSH2 0x556 JUMPI POP PUSH2 0x556 DUP2 PUSH2 0x3AD PUSH2 0xDA3 JUMP JUMPDEST PUSH2 0x572 JUMPI PUSH1 0x40 MLOAD PUSH3 0x461BCD PUSH1 0xE5 SHL DUP2 MSTORE PUSH1 0x4 ADD PUSH2 0x4C4 SWAP1 PUSH2 0x1CB9 JUMP JUMPDEST PUSH2 0x57C DUP4 DUP4 PUSH2 0xDA7 JUMP JUMPDEST POP POP POP JUMP JUMPDEST PUSH1 0x8 SLOAD PUSH1 0x1 PUSH1 0x1 PUSH1 0xA0 SHL SUB AND SWAP1 JUMP JUMPDEST PUSH2 0x5A1 PUSH2 0x59B PUSH2 0xDA3 JUMP JUMPDEST DUP3 PUSH2 0xE15 JUMP JUMPDEST PUSH2 0x5BD JUMPI PUSH1 0x40 MLOAD PUSH3 0x461BCD PUSH1 0xE5 SHL DUP2 MSTORE PUSH1 0x4 ADD PUSH2 0x4C4 SWAP1 PUSH2 0x1F88 JUMP JUMPDEST PUSH2 0x57C DUP4 DUP4 DUP4 PUSH2 0xE9A JUMP JUMPDEST PUSH1 0x0 SWAP1 DUP2 MSTORE PUSH1 0xD PUSH1 0x20 MSTORE PUSH1 0x40 SWAP1 KECCAK256 DUP1 SLOAD PUSH1 0x1 DUP3 ADD SLOAD PUSH1 0x2 SWAP1 SWAP3 ADD SLOAD SWAP1 SWAP3 PUSH1 0xFF SWAP1 SWAP2 AND SWAP1 JUMP JUMPDEST PUSH1 0x60 PUSH1 0xA DUP1 SLOAD DUP1 PUSH1 0x20 MUL PUSH1 0x20 ADD PUSH1 0x40 MLOAD SWAP1 DUP2 ADD PUSH1 0x40 MSTORE DUP1 SWAP3 SWAP2 SWAP1 DUP2 DUP2 MSTORE PUSH1 0x20 ADD DUP3 DUP1 SLOAD DUP1 ISZERO PUSH2 0x493 JUMPI PUSH1 0x20 MUL DUP3 ADD SWAP2 SWAP1 PUSH1 0x0 MSTORE PUSH1 0x20 PUSH1 0x0 KECCAK256 SWAP1 JUMPDEST DUP2 SLOAD DUP2 MSTORE PUSH1 0x20 ADD SWAP1 PUSH1 0x1 ADD SWAP1 DUP1 DUP4 GT PUSH2 0x627 JUMPI POP POP POP POP POP SWAP1 POP SWAP1 JUMP JUMPDEST PUSH2 0x57C DUP4 DUP4 DUP4 PUSH1 0x40 MLOAD DUP1 PUSH1 0x20 ADD PUSH1 0x40 MSTORE DUP1 PUSH1 0x0 DUP2 MSTORE POP PUSH2 0xAE5 JUMP JUMPDEST PUSH1 0x0 SWAP1 DUP2 MSTORE PUSH1 0xD PUSH1 0x20 MSTORE PUSH1 0x40 SWAP1 KECCAK256 PUSH1 0x1 ADD SLOAD SWAP1 JUMP JUMPDEST PUSH1 0x0 DUP2 DUP2 MSTORE PUSH1 0x2 PUSH1 0x20 MSTORE PUSH1 0x40 DUP2 KECCAK256 SLOAD PUSH1 0x1 PUSH1 0x1 PUSH1 0xA0 SHL SUB AND DUP1 PUSH2 0x3F2 JUMPI PUSH1 0x40 MLOAD PUSH3 0x461BCD PUSH1 0xE5 SHL DUP2 MSTORE PUSH1 0x4 ADD PUSH2 0x4C4 SWAP1 PUSH2 0x1D60 JUMP JUMPDEST PUSH1 0x0 DUP4 DUP2 MSTORE PUSH1 0xD PUSH1 0x20 MSTORE PUSH1 0x40 SWAP1 KECCAK256 SLOAD DUP3 PUSH1 0x64 PUSH2 0x6C6 DUP4 PUSH1 0x6E PUSH2 0x20AE JUMP JUMPDEST PUSH2 0x6D0 SWAP2 SWAP1 PUSH2 0x209A JUMP JUMPDEST PUSH2 0x6DA SWAP1 DUP4 PUSH2 0x2082 JUMP JUMPDEST GT PUSH2 0x6F7 JUMPI PUSH1 0x40 MLOAD PUSH3 0x461BCD PUSH1 0xE5 SHL DUP2 MSTORE PUSH1 0x4 ADD PUSH2 0x4C4 SWAP1 PUSH2 0x2028 JUMP JUMPDEST PUSH2 0x723 PUSH32 0x9F2DF0FED2C77648DE5860A4CC508CD0818C85B8B8A1AB4CEEEF8D981C8956A6 PUSH2 0x323 PUSH2 0xDA3 JUMP JUMPDEST ISZERO PUSH2 0x740 JUMPI PUSH1 0x40 MLOAD PUSH3 0x461BCD PUSH1 0xE5 SHL DUP2 MSTORE PUSH1 0x4 ADD PUSH2 0x4C4 SWAP1 PUSH2 0x1FD9 JUMP JUMPDEST PUSH1 0x0 DUP5 DUP2 MSTORE PUSH1 0xD PUSH1 0x20 MSTORE PUSH1 0x40 SWAP1 KECCAK256 PUSH1 0x1 DUP1 DUP3 ADD DUP6 SWAP1 SSTORE PUSH1 0x2 SWAP1 SWAP2 ADD DUP1 SLOAD PUSH1 0xFF NOT AND SWAP1 SWAP2 OR SWAP1 SSTORE PUSH2 0x76F DUP5 PUSH2 0xFC7 JUMP JUMPDEST PUSH2 0x7A9 JUMPI PUSH1 0xA DUP1 SLOAD PUSH1 0x1 DUP2 ADD DUP3 SSTORE PUSH1 0x0 SWAP2 SWAP1 SWAP2 MSTORE PUSH32 0xC65A7BB8D6351C1CF70C95A316CC6A92839C986682D98BC35F958F4883F9D2A8 ADD DUP5 SWAP1 SSTORE JUMPDEST PUSH2 0x7B3 DUP3 DUP6 PUSH2 0x4E9 JUMP JUMPDEST POP POP POP POP JUMP JUMPDEST PUSH2 0x7C3 PUSH1 0x7 PUSH2 0x102D JUMP JUMPDEST PUSH1 0x0 PUSH2 0x7CF PUSH1 0x7 PUSH2 0xD82 JUMP JUMPDEST SWAP1 POP PUSH2 0x7DA DUP2 PUSH2 0x674 JUMP JUMPDEST PUSH1 0x1 PUSH1 0x1 PUSH1 0xA0 SHL SUB AND CALLER PUSH1 0x1 PUSH1 0x1 PUSH1 0xA0 SHL SUB AND EQ PUSH2 0x80A JUMPI PUSH1 0x40 MLOAD PUSH3 0x461BCD PUSH1 0xE5 SHL DUP2 MSTORE PUSH1 0x4 ADD PUSH2 0x4C4 SWAP1 PUSH2 0x1F51 JUMP JUMPDEST PUSH2 0x81D PUSH2 0x816 DUP3 PUSH2 0x674 JUMP JUMPDEST DUP4 DUP4 PUSH2 0x590 JUMP JUMPDEST PUSH2 0x826 DUP3 PUSH2 0x1036 JUMP JUMPDEST PUSH2 0x876 JUMPI PUSH1 0x9 DUP1 SLOAD PUSH1 0x1 DUP2 ADD DUP3 SSTORE PUSH1 0x0 SWAP2 SWAP1 SWAP2 MSTORE PUSH32 0x6E1540171B6C0C960B71A7020D9F60077F6AF931A8BBF590DA0223DACF75C7AF ADD DUP1 SLOAD PUSH1 0x1 PUSH1 0x1 PUSH1 0xA0 SHL SUB NOT AND PUSH1 0x1 PUSH1 0x1 PUSH1 0xA0 SHL SUB DUP5 AND OR SWAP1 SSTORE JUMPDEST PUSH1 0x1 PUSH1 0x1 PUSH1 0xA0 SHL SUB SWAP1 SWAP2 AND PUSH1 0x0 SWAP1 DUP2 MSTORE PUSH1 0xE PUSH1 0x20 SWAP1 DUP2 MSTORE PUSH1 0x40 DUP3 KECCAK256 DUP1 SLOAD PUSH1 0x1 DUP2 ADD DUP3 SSTORE SWAP1 DUP4 MSTORE SWAP2 KECCAK256 ADD SSTORE JUMP JUMPDEST PUSH1 0x0 PUSH1 0x1 PUSH1 0x1 PUSH1 0xA0 SHL SUB DUP3 AND PUSH2 0x8CA JUMPI PUSH1 0x40 MLOAD PUSH3 0x461BCD PUSH1 0xE5 SHL DUP2 MSTORE PUSH1 0x4 ADD PUSH2 0x4C4 SWAP1 PUSH2 0x1D16 JUMP JUMPDEST POP PUSH1 0x1 PUSH1 0x1 PUSH1 0xA0 SHL SUB AND PUSH1 0x0 SWAP1 DUP2 MSTORE PUSH1 0x3 PUSH1 0x20 MSTORE PUSH1 0x40 SWAP1 KECCAK256 SLOAD SWAP1 JUMP JUMPDEST PUSH1 0xC SLOAD PUSH2 0x8F3 PUSH1 0x6 PUSH2 0xD82 JUMP JUMPDEST LT PUSH2 0x910 JUMPI PUSH1 0x40 MLOAD PUSH3 0x461BCD PUSH1 0xE5 SHL DUP2 MSTORE PUSH1 0x4 ADD PUSH2 0x4C4 SWAP1 PUSH2 0x1C82 JUMP JUMPDEST PUSH2 0x3E8 DUP3 PUSH2 0x91C PUSH2 0xD2F JUMP JUMPDEST PUSH2 0x926 SWAP2 SWAP1 PUSH2 0x2082 JUMP JUMPDEST GT ISZERO PUSH2 0x944 JUMPI PUSH1 0x40 MLOAD PUSH3 0x461BCD PUSH1 0xE5 SHL DUP2 MSTORE PUSH1 0x4 ADD PUSH2 0x4C4 SWAP1 PUSH2 0x1DA9 JUMP JUMPDEST PUSH1 0x0 JUMPDEST DUP3 DUP2 LT ISZERO PUSH2 0x57C JUMPI PUSH2 0x958 DUP3 PUSH2 0x10A6 JUMP JUMPDEST POP DUP1 PUSH2 0x963 DUP2 PUSH2 0x214B JUMP JUMPDEST SWAP2 POP POP PUSH2 0x947 JUMP JUMPDEST PUSH1 0xB SLOAD SWAP1 JUMP JUMPDEST PUSH1 0x0 SWAP2 DUP3 MSTORE PUSH1 0xF PUSH1 0x20 SWAP1 DUP2 MSTORE PUSH1 0x40 DUP1 DUP5 KECCAK256 PUSH1 0x1 PUSH1 0x1 PUSH1 0xA0 SHL SUB SWAP4 SWAP1 SWAP4 AND DUP5 MSTORE SWAP2 SWAP1 MSTORE SWAP1 KECCAK256 SLOAD PUSH1 0xFF AND SWAP1 JUMP JUMPDEST PUSH1 0x60 PUSH1 0x1 DUP1 SLOAD PUSH2 0x41A SWAP1 PUSH2 0x2110 JUMP JUMPDEST PUSH2 0x9B3 PUSH2 0xDA3 JUMP JUMPDEST PUSH1 0x1 PUSH1 0x1 PUSH1 0xA0 SHL SUB AND DUP3 PUSH1 0x1 PUSH1 0x1 PUSH1 0xA0 SHL SUB AND EQ ISZERO PUSH2 0x9E4 JUMPI PUSH1 0x40 MLOAD PUSH3 0x461BCD PUSH1 0xE5 SHL DUP2 MSTORE PUSH1 0x4 ADD PUSH2 0x4C4 SWAP1 PUSH2 0x1BBD JUMP JUMPDEST DUP1 PUSH1 0x5 PUSH1 0x0 PUSH2 0x9F1 PUSH2 0xDA3 JUMP JUMPDEST PUSH1 0x1 PUSH1 0x1 PUSH1 0xA0 SHL SUB SWAP1 DUP2 AND DUP3 MSTORE PUSH1 0x20 DUP1 DUP4 ADD SWAP4 SWAP1 SWAP4 MSTORE PUSH1 0x40 SWAP2 DUP3 ADD PUSH1 0x0 SWAP1 DUP2 KECCAK256 SWAP2 DUP8 AND DUP1 DUP3 MSTORE SWAP2 SWAP1 SWAP4 MSTORE SWAP2 KECCAK256 DUP1 SLOAD PUSH1 0xFF NOT AND SWAP3 ISZERO ISZERO SWAP3 SWAP1 SWAP3 OR SWAP1 SWAP2 SSTORE PUSH2 0xA35 PUSH2 0xDA3 JUMP JUMPDEST PUSH1 0x1 PUSH1 0x1 PUSH1 0xA0 SHL SUB AND PUSH32 0x17307EAB39AB6107E8899845AD3D59BD9653F200F220920489CA2B5937696C31 DUP4 PUSH1 0x40 MLOAD PUSH2 0xA6D SWAP2 SWAP1 PUSH2 0x1AC9 JUMP JUMPDEST PUSH1 0x40 MLOAD DUP1 SWAP2 SUB SWAP1 LOG3 POP POP JUMP JUMPDEST PUSH1 0x1 PUSH1 0x1 PUSH1 0xA0 SHL SUB DUP2 AND PUSH1 0x0 SWAP1 DUP2 MSTORE PUSH1 0xE PUSH1 0x20 SWAP1 DUP2 MSTORE PUSH1 0x40 SWAP2 DUP3 SWAP1 KECCAK256 DUP1 SLOAD DUP4 MLOAD DUP2 DUP5 MUL DUP2 ADD DUP5 ADD SWAP1 SWAP5 MSTORE DUP1 DUP5 MSTORE PUSH1 0x60 SWAP4 SWAP3 DUP4 ADD DUP3 DUP3 DUP1 ISZERO PUSH2 0xAD9 JUMPI PUSH1 0x20 MUL DUP3 ADD SWAP2 SWAP1 PUSH1 0x0 MSTORE PUSH1 0x20 PUSH1 0x0 KECCAK256 SWAP1 JUMPDEST DUP2 SLOAD DUP2 MSTORE PUSH1 0x20 ADD SWAP1 PUSH1 0x1 ADD SWAP1 DUP1 DUP4 GT PUSH2 0xAC5 JUMPI JUMPDEST POP POP POP POP POP SWAP1 POP SWAP2 SWAP1 POP JUMP JUMPDEST PUSH2 0xAF6 PUSH2 0xAF0 PUSH2 0xDA3 JUMP JUMPDEST DUP4 PUSH2 0xE15 JUMP JUMPDEST PUSH2 0xB12 JUMPI PUSH1 0x40 MLOAD PUSH3 0x461BCD PUSH1 0xE5 SHL DUP2 MSTORE PUSH1 0x4 ADD PUSH2 0x4C4 SWAP1 PUSH2 0x1F88 JUMP JUMPDEST PUSH2 0x7B3 DUP5 DUP5 DUP5 DUP5 PUSH2 0x1164 JUMP JUMPDEST PUSH1 0x0 DUP2 DUP2 MSTORE PUSH1 0xD PUSH1 0x20 MSTORE PUSH1 0x40 SWAP1 KECCAK256 DUP1 SLOAD PUSH1 0x1 SWAP1 SWAP2 ADD SLOAD DUP3 SWAP2 SWAP1 DUP1 PUSH1 0x64 PUSH2 0xB45 DUP5 PUSH1 0x6E PUSH2 0x20AE JUMP JUMPDEST PUSH2 0xB4F SWAP2 SWAP1 PUSH2 0x209A JUMP JUMPDEST PUSH2 0xB59 SWAP1 DUP5 PUSH2 0x2082 JUMP JUMPDEST GT PUSH2 0xB76 JUMPI PUSH1 0x40 MLOAD PUSH3 0x461BCD PUSH1 0xE5 SHL DUP2 MSTORE PUSH1 0x4 ADD PUSH2 0x4C4 SWAP1 PUSH2 0x2028 JUMP JUMPDEST PUSH1 0x0 PUSH2 0xB81 DUP6 PUSH2 0x674 JUMP JUMPDEST PUSH1 0x0 DUP7 DUP2 MSTORE PUSH1 0xD PUSH1 0x20 MSTORE PUSH1 0x40 SWAP1 KECCAK256 PUSH1 0x1 ADD SLOAD SWAP1 SWAP2 POP PUSH2 0xBA1 DUP3 DUP9 DUP9 PUSH2 0x590 JUMP JUMPDEST PUSH2 0xBAA DUP8 PUSH2 0x1036 JUMP JUMPDEST PUSH2 0xBFA JUMPI PUSH1 0x9 DUP1 SLOAD PUSH1 0x1 DUP2 ADD DUP3 SSTORE PUSH1 0x0 SWAP2 SWAP1 SWAP2 MSTORE PUSH32 0x6E1540171B6C0C960B71A7020D9F60077F6AF931A8BBF590DA0223DACF75C7AF ADD DUP1 SLOAD PUSH1 0x1 PUSH1 0x1 PUSH1 0xA0 SHL SUB NOT AND PUSH1 0x1 PUSH1 0x1 PUSH1 0xA0 SHL SUB DUP10 AND OR SWAP1 SSTORE JUMPDEST PUSH1 0x1 PUSH1 0x1 PUSH1 0xA0 SHL SUB DUP8 AND PUSH1 0x0 SWAP1 DUP2 MSTORE PUSH1 0xE PUSH1 0x20 SWAP1 DUP2 MSTORE PUSH1 0x40 DUP3 KECCAK256 DUP1 SLOAD PUSH1 0x1 DUP2 ADD DUP3 SSTORE SWAP1 DUP4 MSTORE SWAP2 KECCAK256 ADD DUP7 SWAP1 SSTORE PUSH2 0xC2F DUP3 DUP8 PUSH2 0x1197 JUMP JUMPDEST PUSH2 0xC38 DUP7 PUSH2 0x1320 JUMP JUMPDEST PUSH1 0x40 DUP1 MLOAD PUSH1 0x60 DUP2 ADD DUP3 MSTORE SWAP2 DUP3 MSTORE PUSH1 0x0 PUSH1 0x20 DUP1 DUP5 ADD DUP3 DUP2 MSTORE DUP5 DUP5 ADD DUP4 DUP2 MSTORE SWAP10 DUP4 MSTORE PUSH1 0xD SWAP1 SWAP2 MSTORE SWAP2 SWAP1 KECCAK256 SWAP2 MLOAD DUP3 SSTORE MLOAD PUSH1 0x1 DUP3 ADD SSTORE SWAP5 MLOAD PUSH1 0x2 SWAP1 SWAP6 ADD DUP1 SLOAD PUSH1 0xFF NOT AND SWAP6 ISZERO ISZERO SWAP6 SWAP1 SWAP6 OR SWAP1 SWAP5 SSTORE POP POP POP POP POP JUMP JUMPDEST PUSH1 0x60 PUSH2 0xC93 DUP3 PUSH2 0xD86 JUMP JUMPDEST PUSH2 0xCAF JUMPI PUSH1 0x40 MLOAD PUSH3 0x461BCD PUSH1 0xE5 SHL DUP2 MSTORE PUSH1 0x4 ADD PUSH2 0x4C4 SWAP1 PUSH2 0x1EC1 JUMP JUMPDEST PUSH1 0x0 PUSH2 0xCB9 PUSH2 0x1439 JUMP JUMPDEST SWAP1 POP PUSH1 0x0 DUP2 MLOAD GT PUSH2 0xCD9 JUMPI PUSH1 0x40 MLOAD DUP1 PUSH1 0x20 ADD PUSH1 0x40 MSTORE DUP1 PUSH1 0x0 DUP2 MSTORE POP PUSH2 0xD04 JUMP JUMPDEST DUP1 PUSH2 0xCE3 DUP5 PUSH2 0x144B JUMP JUMPDEST PUSH1 0x40 MLOAD PUSH1 0x20 ADD PUSH2 0xCF4 SWAP3 SWAP2 SWAP1 PUSH2 0x1A05 JUMP JUMPDEST PUSH1 0x40 MLOAD PUSH1 0x20 DUP2 DUP4 SUB SUB DUP2 MSTORE SWAP1 PUSH1 0x40 MSTORE JUMPDEST SWAP4 SWAP3 POP POP POP JUMP JUMPDEST PUSH32 0x9F2DF0FED2C77648DE5860A4CC508CD0818C85B8B8A1AB4CEEEF8D981C8956A6 DUP2 JUMP JUMPDEST PUSH1 0x0 PUSH2 0x406 PUSH1 0x6 PUSH2 0xD82 JUMP JUMPDEST PUSH1 0x1 PUSH1 0x1 PUSH1 0xA0 SHL SUB SWAP2 DUP3 AND PUSH1 0x0 SWAP1 DUP2 MSTORE PUSH1 0x5 PUSH1 0x20 SWAP1 DUP2 MSTORE PUSH1 0x40 DUP1 DUP4 KECCAK256 SWAP4 SWAP1 SWAP5 AND DUP3 MSTORE SWAP2 SWAP1 SWAP2 MSTORE KECCAK256 SLOAD PUSH1 0xFF AND SWAP1 JUMP JUMPDEST PUSH1 0x1 PUSH1 0x1 PUSH1 0xE0 SHL SUB NOT DUP2 AND PUSH4 0x1FFC9A7 PUSH1 0xE0 SHL EQ SWAP2 SWAP1 POP JUMP JUMPDEST SLOAD SWAP1 JUMP JUMPDEST PUSH1 0x0 SWAP1 DUP2 MSTORE PUSH1 0x2 PUSH1 0x20 MSTORE PUSH1 0x40 SWAP1 KECCAK256 SLOAD PUSH1 0x1 PUSH1 0x1 PUSH1 0xA0 SHL SUB AND ISZERO ISZERO SWAP1 JUMP JUMPDEST CALLER SWAP1 JUMP JUMPDEST PUSH1 0x0 DUP2 DUP2 MSTORE PUSH1 0x4 PUSH1 0x20 MSTORE PUSH1 0x40 SWAP1 KECCAK256 DUP1 SLOAD PUSH1 0x1 PUSH1 0x1 PUSH1 0xA0 SHL SUB NOT AND PUSH1 0x1 PUSH1 0x1 PUSH1 0xA0 SHL SUB DUP5 AND SWAP1 DUP2 OR SWAP1 SWAP2 SSTORE DUP2 SWAP1 PUSH2 0xDDC DUP3 PUSH2 0x674 JUMP JUMPDEST PUSH1 0x1 PUSH1 0x1 PUSH1 0xA0 SHL SUB AND PUSH32 0x8C5BE1E5EBEC7D5BD14F71427D1E84F3DD0314C0F7B2291E5B200AC8C7C3B925 PUSH1 0x40 MLOAD PUSH1 0x40 MLOAD DUP1 SWAP2 SUB SWAP1 LOG4 POP POP JUMP JUMPDEST PUSH1 0x0 PUSH2 0xE20 DUP3 PUSH2 0xD86 JUMP JUMPDEST PUSH2 0xE3C JUMPI PUSH1 0x40 MLOAD PUSH3 0x461BCD PUSH1 0xE5 SHL DUP2 MSTORE PUSH1 0x4 ADD PUSH2 0x4C4 SWAP1 PUSH2 0x1BF4 JUMP JUMPDEST PUSH1 0x0 PUSH2 0xE47 DUP4 PUSH2 0x674 JUMP JUMPDEST SWAP1 POP DUP1 PUSH1 0x1 PUSH1 0x1 PUSH1 0xA0 SHL SUB AND DUP5 PUSH1 0x1 PUSH1 0x1 PUSH1 0xA0 SHL SUB AND EQ DUP1 PUSH2 0xE82 JUMPI POP DUP4 PUSH1 0x1 PUSH1 0x1 PUSH1 0xA0 SHL SUB AND PUSH2 0xE77 DUP5 PUSH2 0x49D JUMP JUMPDEST PUSH1 0x1 PUSH1 0x1 PUSH1 0xA0 SHL SUB AND EQ JUMPDEST DUP1 PUSH2 0xE92 JUMPI POP PUSH2 0xE92 DUP2 DUP6 PUSH2 0xD3B JUMP JUMPDEST SWAP5 SWAP4 POP POP POP POP JUMP JUMPDEST DUP3 PUSH1 0x1 PUSH1 0x1 PUSH1 0xA0 SHL SUB AND PUSH2 0xEAD DUP3 PUSH2 0x674 JUMP JUMPDEST PUSH1 0x1 PUSH1 0x1 PUSH1 0xA0 SHL SUB AND EQ PUSH2 0xED3 JUMPI PUSH1 0x40 MLOAD PUSH3 0x461BCD PUSH1 0xE5 SHL DUP2 MSTORE PUSH1 0x4 ADD PUSH2 0x4C4 SWAP1 PUSH2 0x1E78 JUMP JUMPDEST PUSH1 0x1 PUSH1 0x1 PUSH1 0xA0 SHL SUB DUP3 AND PUSH2 0xEF9 JUMPI PUSH1 0x40 MLOAD PUSH3 0x461BCD PUSH1 0xE5 SHL DUP2 MSTORE PUSH1 0x4 ADD PUSH2 0x4C4 SWAP1 PUSH2 0x1B79 JUMP JUMPDEST PUSH2 0xF04 DUP4 DUP4 DUP4 PUSH2 0x57C JUMP JUMPDEST PUSH2 0xF0F PUSH1 0x0 DUP3 PUSH2 0xDA7 JUMP JUMPDEST PUSH1 0x1 PUSH1 0x1 PUSH1 0xA0 SHL SUB DUP4 AND PUSH1 0x0 SWAP1 DUP2 MSTORE PUSH1 0x3 PUSH1 0x20 MSTORE PUSH1 0x40 DUP2 KECCAK256 DUP1 SLOAD PUSH1 0x1 SWAP3 SWAP1 PUSH2 0xF38 SWAP1 DUP5 SWAP1 PUSH2 0x20CD JUMP JUMPDEST SWAP1 SWAP2 SSTORE POP POP PUSH1 0x1 PUSH1 0x1 PUSH1 0xA0 SHL SUB DUP3 AND PUSH1 0x0 SWAP1 DUP2 MSTORE PUSH1 0x3 PUSH1 0x20 MSTORE PUSH1 0x40 DUP2 KECCAK256 DUP1 SLOAD PUSH1 0x1 SWAP3 SWAP1 PUSH2 0xF66 SWAP1 DUP5 SWAP1 PUSH2 0x2082 JUMP JUMPDEST SWAP1 SWAP2 SSTORE POP POP PUSH1 0x0 DUP2 DUP2 MSTORE PUSH1 0x2 PUSH1 0x20 MSTORE PUSH1 0x40 DUP1 DUP3 KECCAK256 DUP1 SLOAD PUSH1 0x1 PUSH1 0x1 PUSH1 0xA0 SHL SUB NOT AND PUSH1 0x1 PUSH1 0x1 PUSH1 0xA0 SHL SUB DUP7 DUP2 AND SWAP2 DUP3 OR SWAP1 SWAP3 SSTORE SWAP2 MLOAD DUP5 SWAP4 SWAP2 DUP8 AND SWAP2 PUSH32 0xDDF252AD1BE2C89B69C2B068FC378DAA952BA7F163C4A11628F55A4DF523B3EF SWAP2 LOG4 POP POP POP JUMP JUMPDEST PUSH1 0x0 DUP1 JUMPDEST PUSH1 0xA SLOAD DUP2 LT ISZERO PUSH2 0x1024 JUMPI DUP3 PUSH1 0xA DUP3 DUP2 SLOAD DUP2 LT PUSH2 0xFF7 JUMPI PUSH4 0x4E487B71 PUSH1 0xE0 SHL PUSH1 0x0 MSTORE PUSH1 0x32 PUSH1 0x4 MSTORE PUSH1 0x24 PUSH1 0x0 REVERT JUMPDEST SWAP1 PUSH1 0x0 MSTORE PUSH1 0x20 PUSH1 0x0 KECCAK256 ADD SLOAD EQ ISZERO PUSH2 0x1012 JUMPI PUSH1 0x1 SWAP2 POP POP PUSH2 0x3F5 JUMP JUMPDEST DUP1 PUSH2 0x101C DUP2 PUSH2 0x214B JUMP JUMPDEST SWAP2 POP POP PUSH2 0xFCB JUMP JUMPDEST POP PUSH1 0x0 SWAP3 SWAP2 POP POP JUMP JUMPDEST DUP1 SLOAD PUSH1 0x1 ADD SWAP1 SSTORE JUMP JUMPDEST PUSH1 0x0 DUP1 JUMPDEST PUSH1 0x9 SLOAD DUP2 LT ISZERO PUSH2 0x1024 JUMPI DUP3 PUSH1 0x1 PUSH1 0x1 PUSH1 0xA0 SHL SUB AND PUSH1 0x9 DUP3 DUP2 SLOAD DUP2 LT PUSH2 0x106F JUMPI PUSH4 0x4E487B71 PUSH1 0xE0 SHL PUSH1 0x0 MSTORE PUSH1 0x32 PUSH1 0x4 MSTORE PUSH1 0x24 PUSH1 0x0 REVERT JUMPDEST PUSH1 0x0 SWAP2 DUP3 MSTORE PUSH1 0x20 SWAP1 SWAP2 KECCAK256 ADD SLOAD PUSH1 0x1 PUSH1 0x1 PUSH1 0xA0 SHL SUB AND EQ ISZERO PUSH2 0x1094 JUMPI PUSH1 0x1 SWAP2 POP POP PUSH2 0x3F5 JUMP JUMPDEST DUP1 PUSH2 0x109E DUP2 PUSH2 0x214B JUMP JUMPDEST SWAP2 POP POP PUSH2 0x103A JUMP JUMPDEST PUSH1 0x0 PUSH2 0x10D4 PUSH32 0x9F2DF0FED2C77648DE5860A4CC508CD0818C85B8B8A1AB4CEEEF8D981C8956A6 PUSH2 0x323 PUSH2 0xDA3 JUMP JUMPDEST PUSH2 0x10F0 JUMPI PUSH1 0x40 MLOAD PUSH3 0x461BCD PUSH1 0xE5 SHL DUP2 MSTORE PUSH1 0x4 ADD PUSH2 0x4C4 SWAP1 PUSH2 0x1C40 JUMP JUMPDEST PUSH2 0x10FA PUSH1 0x6 PUSH2 0x102D JUMP JUMPDEST PUSH1 0x0 PUSH2 0x1106 PUSH1 0x6 PUSH2 0xD82 JUMP JUMPDEST SWAP1 POP PUSH2 0x1112 DUP4 DUP3 PUSH2 0x1566 JUMP JUMPDEST PUSH1 0x40 DUP1 MLOAD PUSH1 0x60 DUP2 ADD DUP3 MSTORE PUSH1 0xB SLOAD DUP2 MSTORE PUSH1 0x0 PUSH1 0x20 DUP1 DUP4 ADD DUP3 DUP2 MSTORE DUP4 DUP6 ADD DUP4 DUP2 MSTORE DUP7 DUP5 MSTORE PUSH1 0xD SWAP1 SWAP3 MSTORE SWAP4 SWAP1 SWAP2 KECCAK256 SWAP2 MLOAD DUP3 SSTORE SWAP2 MLOAD PUSH1 0x1 DUP3 ADD SSTORE SWAP1 MLOAD PUSH1 0x2 SWAP1 SWAP2 ADD DUP1 SLOAD PUSH1 0xFF NOT AND SWAP2 ISZERO ISZERO SWAP2 SWAP1 SWAP2 OR SWAP1 SSTORE SWAP3 SWAP2 POP POP JUMP JUMPDEST PUSH2 0x116F DUP5 DUP5 DUP5 PUSH2 0xE9A JUMP JUMPDEST PUSH2 0x117B DUP5 DUP5 DUP5 DUP5 PUSH2 0x1645 JUMP JUMPDEST PUSH2 0x7B3 JUMPI PUSH1 0x40 MLOAD PUSH3 0x461BCD PUSH1 0xE5 SHL DUP2 MSTORE PUSH1 0x4 ADD PUSH2 0x4C4 SWAP1 PUSH2 0x1AF0 JUMP JUMPDEST PUSH1 0x1 PUSH1 0x1 PUSH1 0xA0 SHL SUB DUP3 AND PUSH1 0x0 SWAP1 DUP2 MSTORE PUSH1 0xE PUSH1 0x20 MSTORE PUSH1 0x40 DUP2 KECCAK256 SLOAD SWAP1 JUMPDEST DUP2 DUP2 LT ISZERO PUSH2 0x7B3 JUMPI PUSH1 0x1 PUSH1 0x1 PUSH1 0xA0 SHL SUB DUP5 AND PUSH1 0x0 SWAP1 DUP2 MSTORE PUSH1 0xE PUSH1 0x20 MSTORE PUSH1 0x40 SWAP1 KECCAK256 DUP1 SLOAD DUP5 SWAP2 SWAP1 DUP4 SWAP1 DUP2 LT PUSH2 0x11F5 JUMPI PUSH4 0x4E487B71 PUSH1 0xE0 SHL PUSH1 0x0 MSTORE PUSH1 0x32 PUSH1 0x4 MSTORE PUSH1 0x24 PUSH1 0x0 REVERT JUMPDEST SWAP1 PUSH1 0x0 MSTORE PUSH1 0x20 PUSH1 0x0 KECCAK256 ADD SLOAD EQ ISZERO PUSH2 0x130E JUMPI PUSH1 0x0 PUSH2 0x1213 DUP3 PUSH1 0x1 PUSH2 0x2082 JUMP JUMPDEST SWAP1 POP JUMPDEST DUP3 DUP2 LT ISZERO PUSH2 0x12C1 JUMPI PUSH1 0x1 PUSH1 0x1 PUSH1 0xA0 SHL SUB DUP6 AND PUSH1 0x0 SWAP1 DUP2 MSTORE PUSH1 0xE PUSH1 0x20 MSTORE PUSH1 0x40 SWAP1 KECCAK256 DUP1 SLOAD DUP3 SWAP1 DUP2 LT PUSH2 0x1256 JUMPI PUSH4 0x4E487B71 PUSH1 0xE0 SHL PUSH1 0x0 MSTORE PUSH1 0x32 PUSH1 0x4 MSTORE PUSH1 0x24 PUSH1 0x0 REVERT JUMPDEST PUSH1 0x0 SWAP2 DUP3 MSTORE PUSH1 0x20 DUP1 DUP4 KECCAK256 SWAP1 SWAP2 ADD SLOAD PUSH1 0x1 PUSH1 0x1 PUSH1 0xA0 SHL SUB DUP9 AND DUP4 MSTORE PUSH1 0xE SWAP1 SWAP2 MSTORE PUSH1 0x40 SWAP1 SWAP2 KECCAK256 PUSH2 0x1285 PUSH1 0x1 DUP5 PUSH2 0x20CD JUMP JUMPDEST DUP2 SLOAD DUP2 LT PUSH2 0x12A3 JUMPI PUSH4 0x4E487B71 PUSH1 0xE0 SHL PUSH1 0x0 MSTORE PUSH1 0x32 PUSH1 0x4 MSTORE PUSH1 0x24 PUSH1 0x0 REVERT JUMPDEST PUSH1 0x0 SWAP2 DUP3 MSTORE PUSH1 0x20 SWAP1 SWAP2 KECCAK256 ADD SSTORE DUP1 PUSH2 0x12B9 DUP2 PUSH2 0x214B JUMP JUMPDEST SWAP2 POP POP PUSH2 0x1216 JUMP JUMPDEST POP PUSH1 0x1 PUSH1 0x1 PUSH1 0xA0 SHL SUB DUP5 AND PUSH1 0x0 SWAP1 DUP2 MSTORE PUSH1 0xE PUSH1 0x20 MSTORE PUSH1 0x40 SWAP1 KECCAK256 DUP1 SLOAD DUP1 PUSH2 0x12F7 JUMPI PUSH4 0x4E487B71 PUSH1 0xE0 SHL PUSH1 0x0 MSTORE PUSH1 0x31 PUSH1 0x4 MSTORE PUSH1 0x24 PUSH1 0x0 REVERT JUMPDEST PUSH1 0x1 SWAP1 SUB DUP2 DUP2 SWAP1 PUSH1 0x0 MSTORE PUSH1 0x20 PUSH1 0x0 KECCAK256 ADD PUSH1 0x0 SWAP1 SSTORE SWAP1 SSTORE JUMPDEST DUP1 PUSH2 0x1318 DUP2 PUSH2 0x214B JUMP JUMPDEST SWAP2 POP POP PUSH2 0x11B2 JUMP JUMPDEST PUSH1 0xA SLOAD PUSH1 0x0 JUMPDEST DUP2 DUP2 LT ISZERO PUSH2 0x57C JUMPI DUP3 PUSH1 0xA DUP3 DUP2 SLOAD DUP2 LT PUSH2 0x1350 JUMPI PUSH4 0x4E487B71 PUSH1 0xE0 SHL PUSH1 0x0 MSTORE PUSH1 0x32 PUSH1 0x4 MSTORE PUSH1 0x24 PUSH1 0x0 REVERT JUMPDEST SWAP1 PUSH1 0x0 MSTORE PUSH1 0x20 PUSH1 0x0 KECCAK256 ADD SLOAD EQ ISZERO PUSH2 0x1427 JUMPI PUSH1 0x0 PUSH2 0x136E DUP3 PUSH1 0x1 PUSH2 0x2082 JUMP JUMPDEST SWAP1 POP JUMPDEST DUP3 DUP2 LT ISZERO PUSH2 0x13F0 JUMPI PUSH1 0xA DUP2 DUP2 SLOAD DUP2 LT PUSH2 0x139A JUMPI PUSH4 0x4E487B71 PUSH1 0xE0 SHL PUSH1 0x0 MSTORE PUSH1 0x32 PUSH1 0x4 MSTORE PUSH1 0x24 PUSH1 0x0 REVERT JUMPDEST SWAP1 PUSH1 0x0 MSTORE PUSH1 0x20 PUSH1 0x0 KECCAK256 ADD SLOAD PUSH1 0xA PUSH1 0x1 DUP4 PUSH2 0x13B4 SWAP2 SWAP1 PUSH2 0x20CD JUMP JUMPDEST DUP2 SLOAD DUP2 LT PUSH2 0x13D2 JUMPI PUSH4 0x4E487B71 PUSH1 0xE0 SHL PUSH1 0x0 MSTORE PUSH1 0x32 PUSH1 0x4 MSTORE PUSH1 0x24 PUSH1 0x0 REVERT JUMPDEST PUSH1 0x0 SWAP2 DUP3 MSTORE PUSH1 0x20 SWAP1 SWAP2 KECCAK256 ADD SSTORE DUP1 PUSH2 0x13E8 DUP2 PUSH2 0x214B JUMP JUMPDEST SWAP2 POP POP PUSH2 0x1371 JUMP JUMPDEST POP PUSH1 0xA DUP1 SLOAD DUP1 PUSH2 0x1410 JUMPI PUSH4 0x4E487B71 PUSH1 0xE0 SHL PUSH1 0x0 MSTORE PUSH1 0x31 PUSH1 0x4 MSTORE PUSH1 0x24 PUSH1 0x0 REVERT JUMPDEST PUSH1 0x1 SWAP1 SUB DUP2 DUP2 SWAP1 PUSH1 0x0 MSTORE PUSH1 0x20 PUSH1 0x0 KECCAK256 ADD PUSH1 0x0 SWAP1 SSTORE SWAP1 SSTORE JUMPDEST DUP1 PUSH2 0x1431 DUP2 PUSH2 0x214B JUMP JUMPDEST SWAP2 POP POP PUSH2 0x1326 JUMP JUMPDEST PUSH1 0x40 DUP1 MLOAD PUSH1 0x20 DUP2 ADD SWAP1 SWAP2 MSTORE PUSH1 0x0 DUP2 MSTORE SWAP1 JUMP JUMPDEST PUSH1 0x60 DUP2 PUSH2 0x1470 JUMPI POP PUSH1 0x40 DUP1 MLOAD DUP1 DUP3 ADD SWAP1 SWAP2 MSTORE PUSH1 0x1 DUP2 MSTORE PUSH1 0x3 PUSH1 0xFC SHL PUSH1 0x20 DUP3 ADD MSTORE PUSH2 0x3F5 JUMP JUMPDEST DUP2 PUSH1 0x0 JUMPDEST DUP2 ISZERO PUSH2 0x149A JUMPI DUP1 PUSH2 0x1484 DUP2 PUSH2 0x214B JUMP JUMPDEST SWAP2 POP PUSH2 0x1493 SWAP1 POP PUSH1 0xA DUP4 PUSH2 0x209A JUMP JUMPDEST SWAP2 POP PUSH2 0x1474 JUMP JUMPDEST PUSH1 0x0 DUP2 PUSH8 0xFFFFFFFFFFFFFFFF DUP2 GT ISZERO PUSH2 0x14C3 JUMPI PUSH4 0x4E487B71 PUSH1 0xE0 SHL PUSH1 0x0 MSTORE PUSH1 0x41 PUSH1 0x4 MSTORE PUSH1 0x24 PUSH1 0x0 REVERT JUMPDEST PUSH1 0x40 MLOAD SWAP1 DUP1 DUP3 MSTORE DUP1 PUSH1 0x1F ADD PUSH1 0x1F NOT AND PUSH1 0x20 ADD DUP3 ADD PUSH1 0x40 MSTORE DUP1 ISZERO PUSH2 0x14ED JUMPI PUSH1 0x20 DUP3 ADD DUP2 DUP1 CALLDATASIZE DUP4 CALLDATACOPY ADD SWAP1 POP JUMPDEST POP SWAP1 POP JUMPDEST DUP5 ISZERO PUSH2 0xE92 JUMPI PUSH2 0x1502 PUSH1 0x1 DUP4 PUSH2 0x20CD JUMP JUMPDEST SWAP2 POP PUSH2 0x150F PUSH1 0xA DUP7 PUSH2 0x2166 JUMP JUMPDEST PUSH2 0x151A SWAP1 PUSH1 0x30 PUSH2 0x2082 JUMP JUMPDEST PUSH1 0xF8 SHL DUP2 DUP4 DUP2 MLOAD DUP2 LT PUSH2 0x153D JUMPI PUSH4 0x4E487B71 PUSH1 0xE0 SHL PUSH1 0x0 MSTORE PUSH1 0x32 PUSH1 0x4 MSTORE PUSH1 0x24 PUSH1 0x0 REVERT JUMPDEST PUSH1 0x20 ADD ADD SWAP1 PUSH1 0x1 PUSH1 0x1 PUSH1 0xF8 SHL SUB NOT AND SWAP1 DUP2 PUSH1 0x0 BYTE SWAP1 MSTORE8 POP PUSH2 0x155F PUSH1 0xA DUP7 PUSH2 0x209A JUMP JUMPDEST SWAP5 POP PUSH2 0x14F1 JUMP JUMPDEST PUSH1 0x1 PUSH1 0x1 PUSH1 0xA0 SHL SUB DUP3 AND PUSH2 0x158C JUMPI PUSH1 0x40 MLOAD PUSH3 0x461BCD PUSH1 0xE5 SHL DUP2 MSTORE PUSH1 0x4 ADD PUSH2 0x4C4 SWAP1 PUSH2 0x1DF7 JUMP JUMPDEST PUSH2 0x1595 DUP2 PUSH2 0xD86 JUMP JUMPDEST ISZERO PUSH2 0x15B2 JUMPI PUSH1 0x40 MLOAD PUSH3 0x461BCD PUSH1 0xE5 SHL DUP2 MSTORE PUSH1 0x4 ADD PUSH2 0x4C4 SWAP1 PUSH2 0x1B42 JUMP JUMPDEST PUSH2 0x15BE PUSH1 0x0 DUP4 DUP4 PUSH2 0x57C JUMP JUMPDEST PUSH1 0x1 PUSH1 0x1 PUSH1 0xA0 SHL SUB DUP3 AND PUSH1 0x0 SWAP1 DUP2 MSTORE PUSH1 0x3 PUSH1 0x20 MSTORE PUSH1 0x40 DUP2 KECCAK256 DUP1 SLOAD PUSH1 0x1 SWAP3 SWAP1 PUSH2 0x15E7 SWAP1 DUP5 SWAP1 PUSH2 0x2082 JUMP JUMPDEST SWAP1 SWAP2 SSTORE POP POP PUSH1 0x0 DUP2 DUP2 MSTORE PUSH1 0x2 PUSH1 0x20 MSTORE PUSH1 0x40 DUP1 DUP3 KECCAK256 DUP1 SLOAD PUSH1 0x1 PUSH1 0x1 PUSH1 0xA0 SHL SUB NOT AND PUSH1 0x1 PUSH1 0x1 PUSH1 0xA0 SHL SUB DUP7 AND SWAP1 DUP2 OR SWAP1 SWAP2 SSTORE SWAP1 MLOAD DUP4 SWAP3 SWAP1 PUSH32 0xDDF252AD1BE2C89B69C2B068FC378DAA952BA7F163C4A11628F55A4DF523B3EF SWAP1 DUP3 SWAP1 LOG4 POP POP JUMP JUMPDEST PUSH1 0x0 PUSH2 0x1659 DUP5 PUSH1 0x1 PUSH1 0x1 PUSH1 0xA0 SHL SUB AND PUSH2 0x1760 JUMP JUMPDEST ISZERO PUSH2 0x1755 JUMPI DUP4 PUSH1 0x1 PUSH1 0x1 PUSH1 0xA0 SHL SUB AND PUSH4 0x150B7A02 PUSH2 0x1675 PUSH2 0xDA3 JUMP JUMPDEST DUP8 DUP7 DUP7 PUSH1 0x40 MLOAD DUP6 PUSH4 0xFFFFFFFF AND PUSH1 0xE0 SHL DUP2 MSTORE PUSH1 0x4 ADD PUSH2 0x1697 SWAP5 SWAP4 SWAP3 SWAP2 SWAP1 PUSH2 0x1A48 JUMP JUMPDEST PUSH1 0x20 PUSH1 0x40 MLOAD DUP1 DUP4 SUB DUP2 PUSH1 0x0 DUP8 DUP1 EXTCODESIZE ISZERO DUP1 ISZERO PUSH2 0x16B1 JUMPI PUSH1 0x0 DUP1 REVERT JUMPDEST POP GAS CALL SWAP3 POP POP POP DUP1 ISZERO PUSH2 0x16E1 JUMPI POP PUSH1 0x40 DUP1 MLOAD PUSH1 0x1F RETURNDATASIZE SWAP1 DUP2 ADD PUSH1 0x1F NOT AND DUP3 ADD SWAP1 SWAP3 MSTORE PUSH2 0x16DE SWAP2 DUP2 ADD SWAP1 PUSH2 0x1971 JUMP JUMPDEST PUSH1 0x1 JUMPDEST PUSH2 0x173B JUMPI RETURNDATASIZE DUP1 DUP1 ISZERO PUSH2 0x170F JUMPI PUSH1 0x40 MLOAD SWAP2 POP PUSH1 0x1F NOT PUSH1 0x3F RETURNDATASIZE ADD AND DUP3 ADD PUSH1 0x40 MSTORE RETURNDATASIZE DUP3 MSTORE RETURNDATASIZE PUSH1 0x0 PUSH1 0x20 DUP5 ADD RETURNDATACOPY PUSH2 0x1714 JUMP JUMPDEST PUSH1 0x60 SWAP2 POP JUMPDEST POP DUP1 MLOAD PUSH2 0x1733 JUMPI PUSH1 0x40 MLOAD PUSH3 0x461BCD PUSH1 0xE5 SHL DUP2 MSTORE PUSH1 0x4 ADD PUSH2 0x4C4 SWAP1 PUSH2 0x1AF0 JUMP JUMPDEST DUP1 MLOAD DUP2 PUSH1 0x20 ADD REVERT JUMPDEST PUSH1 0x1 PUSH1 0x1 PUSH1 0xE0 SHL SUB NOT AND PUSH4 0xA85BD01 PUSH1 0xE1 SHL EQ SWAP1 POP PUSH2 0xE92 JUMP JUMPDEST POP PUSH1 0x1 SWAP5 SWAP4 POP POP POP POP JUMP JUMPDEST EXTCODESIZE ISZERO ISZERO SWAP1 JUMP JUMPDEST DUP1 CALLDATALOAD PUSH1 0x1 PUSH1 0x1 PUSH1 0xA0 SHL SUB DUP2 AND DUP2 EQ PUSH2 0x3F5 JUMPI PUSH1 0x0 DUP1 REVERT JUMPDEST PUSH1 0x0 PUSH1 0x20 DUP3 DUP5 SUB SLT ISZERO PUSH2 0x178E JUMPI DUP1 DUP2 REVERT JUMPDEST PUSH2 0xD04 DUP3 PUSH2 0x1766 JUMP JUMPDEST PUSH1 0x0 DUP1 PUSH1 0x40 DUP4 DUP6 SUB SLT ISZERO PUSH2 0x17A9 JUMPI DUP1 DUP2 REVERT JUMPDEST PUSH2 0x17B2 DUP4 PUSH2 0x1766 JUMP JUMPDEST SWAP2 POP PUSH2 0x17C0 PUSH1 0x20 DUP5 ADD PUSH2 0x1766 JUMP JUMPDEST SWAP1 POP SWAP3 POP SWAP3 SWAP1 POP JUMP JUMPDEST PUSH1 0x0 DUP1 PUSH1 0x0 PUSH1 0x60 DUP5 DUP7 SUB SLT ISZERO PUSH2 0x17DD JUMPI DUP1 DUP2 REVERT JUMPDEST PUSH2 0x17E6 DUP5 PUSH2 0x1766 JUMP JUMPDEST SWAP3 POP PUSH2 0x17F4 PUSH1 0x20 DUP6 ADD PUSH2 0x1766 JUMP JUMPDEST SWAP2 POP PUSH1 0x40 DUP5 ADD CALLDATALOAD SWAP1 POP SWAP3 POP SWAP3 POP SWAP3 JUMP JUMPDEST PUSH1 0x0 DUP1 PUSH1 0x0 DUP1 PUSH1 0x80 DUP6 DUP8 SUB SLT ISZERO PUSH2 0x1819 JUMPI DUP1 DUP2 REVERT JUMPDEST PUSH2 0x1822 DUP6 PUSH2 0x1766 JUMP JUMPDEST SWAP4 POP PUSH1 0x20 PUSH2 0x1831 DUP2 DUP8 ADD PUSH2 0x1766 JUMP JUMPDEST SWAP4 POP PUSH1 0x40 DUP7 ADD CALLDATALOAD SWAP3 POP PUSH1 0x60 DUP7 ADD CALLDATALOAD PUSH8 0xFFFFFFFFFFFFFFFF DUP1 DUP3 GT ISZERO PUSH2 0x1854 JUMPI DUP4 DUP5 REVERT JUMPDEST DUP2 DUP9 ADD SWAP2 POP DUP9 PUSH1 0x1F DUP4 ADD SLT PUSH2 0x1867 JUMPI DUP4 DUP5 REVERT JUMPDEST DUP2 CALLDATALOAD DUP2 DUP2 GT ISZERO PUSH2 0x1879 JUMPI PUSH2 0x1879 PUSH2 0x21A6 JUMP JUMPDEST PUSH1 0x40 MLOAD PUSH1 0x1F DUP3 ADD PUSH1 0x1F NOT AND DUP2 ADD DUP6 ADD DUP4 DUP2 GT DUP3 DUP3 LT OR ISZERO PUSH2 0x189C JUMPI PUSH2 0x189C PUSH2 0x21A6 JUMP JUMPDEST PUSH1 0x40 MSTORE DUP2 DUP2 MSTORE DUP4 DUP3 ADD DUP6 ADD DUP12 LT ISZERO PUSH2 0x18B2 JUMPI DUP6 DUP7 REVERT JUMPDEST DUP2 DUP6 DUP6 ADD DUP7 DUP4 ADD CALLDATACOPY SWAP1 DUP2 ADD SWAP1 SWAP4 ADD SWAP4 SWAP1 SWAP4 MSTORE POP SWAP4 SWAP7 SWAP3 SWAP6 POP SWAP1 SWAP4 POP POP JUMP JUMPDEST PUSH1 0x0 DUP1 PUSH1 0x40 DUP4 DUP6 SUB SLT ISZERO PUSH2 0x18E2 JUMPI DUP2 DUP3 REVERT JUMPDEST PUSH2 0x18EB DUP4 PUSH2 0x1766 JUMP JUMPDEST SWAP2 POP PUSH1 0x20 DUP4 ADD CALLDATALOAD DUP1 ISZERO ISZERO DUP2 EQ PUSH2 0x18FF JUMPI DUP2 DUP3 REVERT JUMPDEST DUP1 SWAP2 POP POP SWAP3 POP SWAP3 SWAP1 POP JUMP JUMPDEST PUSH1 0x0 DUP1 PUSH1 0x40 DUP4 DUP6 SUB SLT ISZERO PUSH2 0x191C JUMPI DUP2 DUP3 REVERT JUMPDEST PUSH2 0x1925 DUP4 PUSH2 0x1766 JUMP JUMPDEST SWAP5 PUSH1 0x20 SWAP4 SWAP1 SWAP4 ADD CALLDATALOAD SWAP4 POP POP POP JUMP JUMPDEST PUSH1 0x0 DUP1 PUSH1 0x40 DUP4 DUP6 SUB SLT ISZERO PUSH2 0x1945 JUMPI DUP2 DUP3 REVERT JUMPDEST DUP3 CALLDATALOAD SWAP2 POP PUSH2 0x17C0 PUSH1 0x20 DUP5 ADD PUSH2 0x1766 JUMP JUMPDEST PUSH1 0x0 PUSH1 0x20 DUP3 DUP5 SUB SLT ISZERO PUSH2 0x1966 JUMPI DUP1 DUP2 REVERT JUMPDEST DUP2 CALLDATALOAD PUSH2 0xD04 DUP2 PUSH2 0x21BC JUMP JUMPDEST PUSH1 0x0 PUSH1 0x20 DUP3 DUP5 SUB SLT ISZERO PUSH2 0x1982 JUMPI DUP1 DUP2 REVERT JUMPDEST DUP2 MLOAD PUSH2 0xD04 DUP2 PUSH2 0x21BC JUMP JUMPDEST PUSH1 0x0 PUSH1 0x20 DUP3 DUP5 SUB SLT ISZERO PUSH2 0x199E JUMPI DUP1 DUP2 REVERT JUMPDEST POP CALLDATALOAD SWAP2 SWAP1 POP JUMP JUMPDEST PUSH1 0x0 DUP1 PUSH1 0x0 PUSH1 0x60 DUP5 DUP7 SUB SLT ISZERO PUSH2 0x19B9 JUMPI DUP3 DUP4 REVERT JUMPDEST DUP4 CALLDATALOAD SWAP3 POP PUSH1 0x20 DUP5 ADD CALLDATALOAD SWAP2 POP PUSH2 0x19D0 PUSH1 0x40 DUP6 ADD PUSH2 0x1766 JUMP JUMPDEST SWAP1 POP SWAP3 POP SWAP3 POP SWAP3 JUMP JUMPDEST PUSH1 0x0 DUP2 MLOAD DUP1 DUP5 MSTORE PUSH2 0x19F1 DUP2 PUSH1 0x20 DUP7 ADD PUSH1 0x20 DUP7 ADD PUSH2 0x20E4 JUMP JUMPDEST PUSH1 0x1F ADD PUSH1 0x1F NOT AND SWAP3 SWAP1 SWAP3 ADD PUSH1 0x20 ADD SWAP3 SWAP2 POP POP JUMP JUMPDEST PUSH1 0x0 DUP4 MLOAD PUSH2 0x1A17 DUP2 DUP5 PUSH1 0x20 DUP9 ADD PUSH2 0x20E4 JUMP JUMPDEST DUP4 MLOAD SWAP1 DUP4 ADD SWAP1 PUSH2 0x1A2B DUP2 DUP4 PUSH1 0x20 DUP9 ADD PUSH2 0x20E4 JUMP JUMPDEST ADD SWAP5 SWAP4 POP POP POP POP JUMP JUMPDEST PUSH1 0x1 PUSH1 0x1 PUSH1 0xA0 SHL SUB SWAP2 SWAP1 SWAP2 AND DUP2 MSTORE PUSH1 0x20 ADD SWAP1 JUMP JUMPDEST PUSH1 0x1 PUSH1 0x1 PUSH1 0xA0 SHL SUB DUP6 DUP2 AND DUP3 MSTORE DUP5 AND PUSH1 0x20 DUP3 ADD MSTORE PUSH1 0x40 DUP2 ADD DUP4 SWAP1 MSTORE PUSH1 0x80 PUSH1 0x60 DUP3 ADD DUP2 SWAP1 MSTORE PUSH1 0x0 SWAP1 PUSH2 0x1A7B SWAP1 DUP4 ADD DUP5 PUSH2 0x19D9 JUMP JUMPDEST SWAP7 SWAP6 POP POP POP POP POP POP JUMP JUMPDEST PUSH1 0x20 DUP1 DUP3 MSTORE DUP3 MLOAD DUP3 DUP3 ADD DUP2 SWAP1 MSTORE PUSH1 0x0 SWAP2 SWAP1 DUP5 DUP3 ADD SWAP1 PUSH1 0x40 DUP6 ADD SWAP1 DUP5 JUMPDEST DUP2 DUP2 LT ISZERO PUSH2 0x1ABD JUMPI DUP4 MLOAD DUP4 MSTORE SWAP3 DUP5 ADD SWAP3 SWAP2 DUP5 ADD SWAP2 PUSH1 0x1 ADD PUSH2 0x1AA1 JUMP JUMPDEST POP SWAP1 SWAP7 SWAP6 POP POP POP POP POP POP JUMP JUMPDEST SWAP1 ISZERO ISZERO DUP2 MSTORE PUSH1 0x20 ADD SWAP1 JUMP JUMPDEST SWAP1 DUP2 MSTORE PUSH1 0x20 ADD SWAP1 JUMP JUMPDEST PUSH1 0x0 PUSH1 0x20 DUP3 MSTORE PUSH2 0xD04 PUSH1 0x20 DUP4 ADD DUP5 PUSH2 0x19D9 JUMP JUMPDEST PUSH1 0x20 DUP1 DUP3 MSTORE PUSH1 0x32 SWAP1 DUP3 ADD MSTORE PUSH32 0x4552433732313A207472616E7366657220746F206E6F6E204552433732315265 PUSH1 0x40 DUP3 ADD MSTORE PUSH18 0x31B2B4BB32B91034B6B83632B6B2B73A32B9 PUSH1 0x71 SHL PUSH1 0x60 DUP3 ADD MSTORE PUSH1 0x80 ADD SWAP1 JUMP JUMPDEST PUSH1 0x20 DUP1 DUP3 MSTORE PUSH1 0x1C SWAP1 DUP3 ADD MSTORE PUSH32 0x4552433732313A20746F6B656E20616C7265616479206D696E74656400000000 PUSH1 0x40 DUP3 ADD MSTORE PUSH1 0x60 ADD SWAP1 JUMP JUMPDEST PUSH1 0x20 DUP1 DUP3 MSTORE PUSH1 0x24 SWAP1 DUP3 ADD MSTORE PUSH32 0x4552433732313A207472616E7366657220746F20746865207A65726F20616464 PUSH1 0x40 DUP3 ADD MSTORE PUSH4 0x72657373 PUSH1 0xE0 SHL PUSH1 0x60 DUP3 ADD MSTORE PUSH1 0x80 ADD SWAP1 JUMP JUMPDEST PUSH1 0x20 DUP1 DUP3 MSTORE PUSH1 0x19 SWAP1 DUP3 ADD MSTORE PUSH32 0x4552433732313A20617070726F766520746F2063616C6C657200000000000000 PUSH1 0x40 DUP3 ADD MSTORE PUSH1 0x60 ADD SWAP1 JUMP JUMPDEST PUSH1 0x20 DUP1 DUP3 MSTORE PUSH1 0x2C SWAP1 DUP3 ADD MSTORE PUSH32 0x4552433732313A206F70657261746F7220717565727920666F72206E6F6E6578 PUSH1 0x40 DUP3 ADD MSTORE PUSH12 0x34B9BA32B73A103A37B5B2B7 PUSH1 0xA1 SHL PUSH1 0x60 DUP3 ADD MSTORE PUSH1 0x80 ADD SWAP1 JUMP JUMPDEST PUSH1 0x20 DUP1 DUP3 MSTORE PUSH1 0x22 SWAP1 DUP3 ADD MSTORE PUSH32 0x55736572206D7573742068617665206D696E74657220726F6C6520746F206D69 PUSH1 0x40 DUP3 ADD MSTORE PUSH2 0x1B9D PUSH1 0xF2 SHL PUSH1 0x60 DUP3 ADD MSTORE PUSH1 0x80 ADD SWAP1 JUMP JUMPDEST PUSH1 0x20 DUP1 DUP3 MSTORE PUSH1 0x1E SWAP1 DUP3 ADD MSTORE PUSH32 0x4D6178696D756D207469636B6574206C696D6974206578636565646564210000 PUSH1 0x40 DUP3 ADD MSTORE PUSH1 0x60 ADD SWAP1 JUMP JUMPDEST PUSH1 0x20 DUP1 DUP3 MSTORE PUSH1 0x38 SWAP1 DUP3 ADD MSTORE PUSH32 0x4552433732313A20617070726F76652063616C6C6572206973206E6F74206F77 PUSH1 0x40 DUP3 ADD MSTORE PUSH32 0x6E6572206E6F7220617070726F76656420666F7220616C6C0000000000000000 PUSH1 0x60 DUP3 ADD MSTORE PUSH1 0x80 ADD SWAP1 JUMP JUMPDEST PUSH1 0x20 DUP1 DUP3 MSTORE PUSH1 0x2A SWAP1 DUP3 ADD MSTORE PUSH32 0x4552433732313A2062616C616E636520717565727920666F7220746865207A65 PUSH1 0x40 DUP3 ADD MSTORE PUSH10 0x726F2061646472657373 PUSH1 0xB0 SHL PUSH1 0x60 DUP3 ADD MSTORE PUSH1 0x80 ADD SWAP1 JUMP JUMPDEST PUSH1 0x20 DUP1 DUP3 MSTORE PUSH1 0x29 SWAP1 DUP3 ADD MSTORE PUSH32 0x4552433732313A206F776E657220717565727920666F72206E6F6E6578697374 PUSH1 0x40 DUP3 ADD MSTORE PUSH9 0x32B73A103A37B5B2B7 PUSH1 0xB9 SHL PUSH1 0x60 DUP3 ADD MSTORE PUSH1 0x80 ADD SWAP1 JUMP JUMPDEST PUSH1 0x20 DUP1 DUP3 MSTORE PUSH1 0x2E SWAP1 DUP3 ADD MSTORE PUSH32 0x4E756D626572206F66207469636B6574732065786365656473206D6178696D75 PUSH1 0x40 DUP3 ADD MSTORE PUSH14 0x1B481D1A58DAD95D0818DBDD5B9D PUSH1 0x92 SHL PUSH1 0x60 DUP3 ADD MSTORE PUSH1 0x80 ADD SWAP1 JUMP JUMPDEST PUSH1 0x20 DUP1 DUP3 MSTORE DUP2 DUP2 ADD MSTORE PUSH32 0x4552433732313A206D696E7420746F20746865207A65726F2061646472657373 PUSH1 0x40 DUP3 ADD MSTORE PUSH1 0x60 ADD SWAP1 JUMP JUMPDEST PUSH1 0x20 DUP1 DUP3 MSTORE PUSH1 0x2C SWAP1 DUP3 ADD MSTORE PUSH32 0x4552433732313A20617070726F76656420717565727920666F72206E6F6E6578 PUSH1 0x40 DUP3 ADD MSTORE PUSH12 0x34B9BA32B73A103A37B5B2B7 PUSH1 0xA1 SHL PUSH1 0x60 DUP3 ADD MSTORE PUSH1 0x80 ADD SWAP1 JUMP JUMPDEST PUSH1 0x20 DUP1 DUP3 MSTORE PUSH1 0x29 SWAP1 DUP3 ADD MSTORE PUSH32 0x4552433732313A207472616E73666572206F6620746F6B656E20746861742069 PUSH1 0x40 DUP3 ADD MSTORE PUSH9 0x39903737BA1037BBB7 PUSH1 0xB9 SHL PUSH1 0x60 DUP3 ADD MSTORE PUSH1 0x80 ADD SWAP1 JUMP JUMPDEST PUSH1 0x20 DUP1 DUP3 MSTORE PUSH1 0x2F SWAP1 DUP3 ADD MSTORE PUSH32 0x4552433732314D657461646174613A2055524920717565727920666F72206E6F PUSH1 0x40 DUP3 ADD MSTORE PUSH15 0x3732BC34B9BA32B73A103A37B5B2B7 PUSH1 0x89 SHL PUSH1 0x60 DUP3 ADD MSTORE PUSH1 0x80 ADD SWAP1 JUMP JUMPDEST PUSH1 0x20 DUP1 DUP3 MSTORE PUSH1 0x21 SWAP1 DUP3 ADD MSTORE PUSH32 0x4552433732313A20617070726F76616C20746F2063757272656E74206F776E65 PUSH1 0x40 DUP3 ADD MSTORE PUSH1 0x39 PUSH1 0xF9 SHL PUSH1 0x60 DUP3 ADD MSTORE PUSH1 0x80 ADD SWAP1 JUMP JUMPDEST PUSH1 0x20 DUP1 DUP3 MSTORE PUSH1 0x1D SWAP1 DUP3 ADD MSTORE PUSH32 0x4F6E6C7920696E697469616C20707572636861736520616C6C6F776564000000 PUSH1 0x40 DUP3 ADD MSTORE PUSH1 0x60 ADD SWAP1 JUMP JUMPDEST PUSH1 0x20 DUP1 DUP3 MSTORE PUSH1 0x31 SWAP1 DUP3 ADD MSTORE PUSH32 0x4552433732313A207472616E736665722063616C6C6572206973206E6F74206F PUSH1 0x40 DUP3 ADD MSTORE PUSH17 0x1DDB995C881B9BDC88185C1C1C9BDD9959 PUSH1 0x7A SHL PUSH1 0x60 DUP3 ADD MSTORE PUSH1 0x80 ADD SWAP1 JUMP JUMPDEST PUSH1 0x20 DUP1 DUP3 MSTORE PUSH1 0x2F SWAP1 DUP3 ADD MSTORE PUSH32 0x46756E6374696F6E616C697479206F6E6C7920616C6C6F77656420666F722073 PUSH1 0x40 DUP3 ADD MSTORE PUSH15 0x1958DBDB99185C9E481B585C9AD95D PUSH1 0x8A SHL PUSH1 0x60 DUP3 ADD MSTORE PUSH1 0x80 ADD SWAP1 JUMP JUMPDEST PUSH1 0x20 DUP1 DUP3 MSTORE PUSH1 0x22 SWAP1 DUP3 ADD MSTORE PUSH32 0x52652D73656C6C696E67207072696365206973206D6F7265207468616E203131 PUSH1 0x40 DUP3 ADD MSTORE PUSH2 0x3025 PUSH1 0xF0 SHL PUSH1 0x60 DUP3 ADD MSTORE PUSH1 0x80 ADD SWAP1 JUMP JUMPDEST SWAP3 DUP4 MSTORE PUSH1 0x20 DUP4 ADD SWAP2 SWAP1 SWAP2 MSTORE ISZERO ISZERO PUSH1 0x40 DUP3 ADD MSTORE PUSH1 0x60 ADD SWAP1 JUMP JUMPDEST PUSH1 0x0 DUP3 NOT DUP3 GT ISZERO PUSH2 0x2095 JUMPI PUSH2 0x2095 PUSH2 0x217A JUMP JUMPDEST POP ADD SWAP1 JUMP JUMPDEST PUSH1 0x0 DUP3 PUSH2 0x20A9 JUMPI PUSH2 0x20A9 PUSH2 0x2190 JUMP JUMPDEST POP DIV SWAP1 JUMP JUMPDEST PUSH1 0x0 DUP2 PUSH1 0x0 NOT DIV DUP4 GT DUP3 ISZERO ISZERO AND ISZERO PUSH2 0x20C8 JUMPI PUSH2 0x20C8 PUSH2 0x217A JUMP JUMPDEST POP MUL SWAP1 JUMP JUMPDEST PUSH1 0x0 DUP3 DUP3 LT ISZERO PUSH2 0x20DF JUMPI PUSH2 0x20DF PUSH2 0x217A JUMP JUMPDEST POP SUB SWAP1 JUMP JUMPDEST PUSH1 0x0 JUMPDEST DUP4 DUP2 LT ISZERO PUSH2 0x20FF JUMPI DUP2 DUP2 ADD MLOAD DUP4 DUP3 ADD MSTORE PUSH1 0x20 ADD PUSH2 0x20E7 JUMP JUMPDEST DUP4 DUP2 GT ISZERO PUSH2 0x7B3 JUMPI POP POP PUSH1 0x0 SWAP2 ADD MSTORE JUMP JUMPDEST PUSH1 0x2 DUP2 DIV PUSH1 0x1 DUP3 AND DUP1 PUSH2 0x2124 JUMPI PUSH1 0x7F DUP3 AND SWAP2 POP JUMPDEST PUSH1 0x20 DUP3 LT DUP2 EQ ISZERO PUSH2 0x2145 JUMPI PUSH4 0x4E487B71 PUSH1 0xE0 SHL PUSH1 0x0 MSTORE PUSH1 0x22 PUSH1 0x4 MSTORE PUSH1 0x24 PUSH1 0x0 REVERT JUMPDEST POP SWAP2 SWAP1 POP JUMP JUMPDEST PUSH1 0x0 PUSH1 0x0 NOT DUP3 EQ ISZERO PUSH2 0x215F JUMPI PUSH2 0x215F PUSH2 0x217A JUMP JUMPDEST POP PUSH1 0x1 ADD SWAP1 JUMP JUMPDEST PUSH1 0x0 DUP3 PUSH2 0x2175 JUMPI PUSH2 0x2175 PUSH2 0x2190 JUMP JUMPDEST POP MOD SWAP1 JUMP JUMPDEST PUSH4 0x4E487B71 PUSH1 0xE0 SHL PUSH1 0x0 MSTORE PUSH1 0x11 PUSH1 0x4 MSTORE PUSH1 0x24 PUSH1 0x0 REVERT JUMPDEST PUSH4 0x4E487B71 PUSH1 0xE0 SHL PUSH1 0x0 MSTORE PUSH1 0x12 PUSH1 0x4 MSTORE PUSH1 0x24 PUSH1 0x0 REVERT JUMPDEST PUSH4 0x4E487B71 PUSH1 0xE0 SHL PUSH1 0x0 MSTORE PUSH1 0x41 PUSH1 0x4 MSTORE PUSH1 0x24 PUSH1 0x0 REVERT JUMPDEST PUSH1 0x1 PUSH1 0x1 PUSH1 0xE0 SHL SUB NOT DUP2 AND DUP2 EQ PUSH2 0x21D2 JUMPI PUSH1 0x0 DUP1 REVERT JUMPDEST POP JUMP INVALID LOG2 PUSH5 0x6970667358 0x22 SLT KECCAK256 SSTORE EXTCODEHASH 0xF9 LOG1 0xAD 0xBA PUSH25 0xC078A914B4EC068ECA4F26E28D7FF65BEF28A5058A5C99D7BF PUSH5 0x736F6C6343 STOP ADDMOD STOP STOP CALLER "
		},
		"gasEstimates": {
			"creation": {
				"codeDepositCost": "1743000",
				"executionCost": "infinite",
				"totalCost": "infinite"
			},
			"external": {
				"MINTER_ROLE()": "294",
				"approve(address,uint256)": "infinite",
				"balanceOf(address)": "1378",
				"bulkMintTickets(uint256,address)": "infinite",
				"getApproved(uint256)": "2245",
				"getNextSaleTicketId()": "1109",
				"getOrganiser()": "1204",
				"getSellingPrice(uint256)": "1244",
				"getTicketDetails(uint256)": "2932",
				"getTicketPrice()": "1073",
				"getTicketsForSale()": "infinite",
				"getTicketsOfCustomer(address)": "infinite",
				"hasRole(bytes32,address)": "1453",
				"isApprovedForAll(address,address)": "infinite",
				"name()": "infinite",
				"ownerOf(uint256)": "1366",
				"safeTransferFrom(address,address,uint256)": "infinite",
				"safeTransferFrom(address,address,uint256,bytes)": "infinite",
				"secondaryTransferTicket(address,uint256)": "infinite",
				"setApprovalForAll(address,bool)": "infinite",
				"setSaleDetails(uint256,uint256,address)": "infinite",
				"supportsInterface(bytes4)": "596",
				"symbol()": "infinite",
				"ticketCounts()": "1151",
				"tokenURI(uint256)": "infinite",
				"transferFrom(address,address,uint256)": "infinite",
				"transferTicket(address)": "infinite"
			},
			"internal": {
				"_grantRole(bytes32,address)": "infinite",
				"_setupRole(bytes32,address)": "infinite",
				"isCustomerExist(address)": "infinite",
				"isSaleTicketAvailable(uint256)": "infinite",
				"mint(address)": "infinite",
				"removeTicketFromCustomer(address,uint256)": "infinite",
				"removeTicketFromSale(uint256)": "infinite"
			}
		},
		"methodIdentifiers": {
			"MINTER_ROLE()": "d5391393",
			"approve(address,uint256)": "095ea7b3",
			"balanceOf(address)": "70a08231",
			"bulkMintTickets(uint256,address)": "750e024c",
			"getApproved(uint256)": "081812fc",
			"getNextSaleTicketId()": "065366ee",
			"getOrganiser()": "0b705578",
			"getSellingPrice(uint256)": "569e35db",
			"getTicketDetails(uint256)": "24c14160",
			"getTicketPrice()": "87bb7ae0",
			"getTicketsForSale()": "35fe12d8",
			"getTicketsOfCustomer(address)": "b632c9e4",
			"hasRole(bytes32,address)": "91d14854",
			"isApprovedForAll(address,address)": "e985e9c5",
			"name()": "06fdde03",
			"ownerOf(uint256)": "6352211e",
			"safeTransferFrom(address,address,uint256)": "42842e0e",
			"safeTransferFrom(address,address,uint256,bytes)": "b88d4fde",
			"secondaryTransferTicket(address,uint256)": "c83b4590",
			"setApprovalForAll(address,bool)": "a22cb465",
			"setSaleDetails(uint256,uint256,address)": "64d7f44f",
			"supportsInterface(bytes4)": "01ffc9a7",
			"symbol()": "95d89b41",
			"ticketCounts()": "e3278ad6",
			"tokenURI(uint256)": "c87b56dd",
			"transferFrom(address,address,uint256)": "23b872dd",
			"transferTicket(address)": "6afadefb"
		}
	},
	"abi": [
		{
			"inputs": [
				{
					"internalType": "string",
					"name": "festName",
					"type": "string"
				},
				{
					"internalType": "string",
					"name": "FestSymbol",
					"type": "string"
				},
				{
					"internalType": "uint256",
					"name": "ticketPrice",
					"type": "uint256"
				},
				{
					"internalType": "uint256",
					"name": "totalSupply",
					"type": "uint256"
				},
				{
					"internalType": "address",
					"name": "organiser",
					"type": "address"
				}
			],
			"stateMutability": "nonpayable",
			"type": "constructor"
		},
		{
			"anonymous": false,
			"inputs": [
				{
					"indexed": true,
					"internalType": "address",
					"name": "owner",
					"type": "address"
				},
				{
					"indexed": true,
					"internalType": "address",
					"name": "approved",
					"type": "address"
				},
				{
					"indexed": true,
					"internalType": "uint256",
					"name": "tokenId",
					"type": "uint256"
				}
			],
			"name": "Approval",
			"type": "event"
		},
		{
			"anonymous": false,
			"inputs": [
				{
					"indexed": true,
					"internalType": "address",
					"name": "owner",
					"type": "address"
				},
				{
					"indexed": true,
					"internalType": "address",
					"name": "operator",
					"type": "address"
				},
				{
					"indexed": false,
					"internalType": "bool",
					"name": "approved",
					"type": "bool"
				}
			],
			"name": "ApprovalForAll",
			"type": "event"
		},
		{
			"anonymous": false,
			"inputs": [
				{
					"indexed": true,
					"internalType": "address",
					"name": "from",
					"type": "address"
				},
				{
					"indexed": true,
					"internalType": "address",
					"name": "to",
					"type": "address"
				},
				{
					"indexed": true,
					"internalType": "uint256",
					"name": "tokenId",
					"type": "uint256"
				}
			],
			"name": "Transfer",
			"type": "event"
		},
		{
			"inputs": [],
			"name": "MINTER_ROLE",
			"outputs": [
				{
					"internalType": "bytes32",
					"name": "",
					"type": "bytes32"
				}
			],
			"stateMutability": "view",
			"type": "function"
		},
		{
			"inputs": [
				{
					"internalType": "address",
					"name": "to",
					"type": "address"
				},
				{
					"internalType": "uint256",
					"name": "tokenId",
					"type": "uint256"
				}
			],
			"name": "approve",
			"outputs": [],
			"stateMutability": "nonpayable",
			"type": "function"
		},
		{
			"inputs": [
				{
					"internalType": "address",
					"name": "owner",
					"type": "address"
				}
			],
			"name": "balanceOf",
			"outputs": [
				{
					"internalType": "uint256",
					"name": "",
					"type": "uint256"
				}
			],
			"stateMutability": "view",
			"type": "function"
		},
		{
			"inputs": [
				{
					"internalType": "uint256",
					"name": "numOfTickets",
					"type": "uint256"
				},
				{
					"internalType": "address",
					"name": "operator",
					"type": "address"
				}
			],
			"name": "bulkMintTickets",
			"outputs": [],
			"stateMutability": "nonpayable",
			"type": "function"
		},
		{
			"inputs": [
				{
					"internalType": "uint256",
					"name": "tokenId",
					"type": "uint256"
				}
			],
			"name": "getApproved",
			"outputs": [
				{
					"internalType": "address",
					"name": "",
					"type": "address"
				}
			],
			"stateMutability": "view",
			"type": "function"
		},
		{
			"inputs": [],
			"name": "getNextSaleTicketId",
			"outputs": [
				{
					"internalType": "uint256",
					"name": "",
					"type": "uint256"
				}
			],
			"stateMutability": "view",
			"type": "function"
		},
		{
			"inputs": [],
			"name": "getOrganiser",
			"outputs": [
				{
					"internalType": "address",
					"name": "",
					"type": "address"
				}
			],
			"stateMutability": "view",
			"type": "function"
		},
		{
			"inputs": [
				{
					"internalType": "uint256",
					"name": "ticketId",
					"type": "uint256"
				}
			],
			"name": "getSellingPrice",
			"outputs": [
				{
					"internalType": "uint256",
					"name": "",
					"type": "uint256"
				}
			],
			"stateMutability": "view",
			"type": "function"
		},
		{
			"inputs": [
				{
					"internalType": "uint256",
					"name": "ticketId",
					"type": "uint256"
				}
			],
			"name": "getTicketDetails",
			"outputs": [
				{
					"internalType": "uint256",
					"name": "purchasePrice",
					"type": "uint256"
				},
				{
					"internalType": "uint256",
					"name": "sellingPrice",
					"type": "uint256"
				},
				{
					"internalType": "bool",
					"name": "forSale",
					"type": "bool"
				}
			],
			"stateMutability": "view",
			"type": "function"
		},
		{
			"inputs": [],
			"name": "getTicketPrice",
			"outputs": [
				{
					"internalType": "uint256",
					"name": "",
					"type": "uint256"
				}
			],
			"stateMutability": "view",
			"type": "function"
		},
		{
			"inputs": [],
			"name": "getTicketsForSale",
			"outputs": [
				{
					"internalType": "uint256[]",
					"name": "",
					"type": "uint256[]"
				}
			],
			"stateMutability": "view",
			"type": "function"
		},
		{
			"inputs": [
				{
					"internalType": "address",
					"name": "customer",
					"type": "address"
				}
			],
			"name": "getTicketsOfCustomer",
			"outputs": [
				{
					"internalType": "uint256[]",
					"name": "",
					"type": "uint256[]"
				}
			],
			"stateMutability": "view",
			"type": "function"
		},
		{
			"inputs": [
				{
					"internalType": "bytes32",
					"name": "role",
					"type": "bytes32"
				},
				{
					"internalType": "address",
					"name": "account",
					"type": "address"
				}
			],
			"name": "hasRole",
			"outputs": [
				{
					"internalType": "bool",
					"name": "",
					"type": "bool"
				}
			],
			"stateMutability": "view",
			"type": "function"
		},
		{
			"inputs": [
				{
					"internalType": "address",
					"name": "owner",
					"type": "address"
				},
				{
					"internalType": "address",
					"name": "operator",
					"type": "address"
				}
			],
			"name": "isApprovedForAll",
			"outputs": [
				{
					"internalType": "bool",
					"name": "",
					"type": "bool"
				}
			],
			"stateMutability": "view",
			"type": "function"
		},
		{
			"inputs": [],
			"name": "name",
			"outputs": [
				{
					"internalType": "string",
					"name": "",
					"type": "string"
				}
			],
			"stateMutability": "view",
			"type": "function"
		},
		{
			"inputs": [
				{
					"internalType": "uint256",
					"name": "tokenId",
					"type": "uint256"
				}
			],
			"name": "ownerOf",
			"outputs": [
				{
					"internalType": "address",
					"name": "",
					"type": "address"
				}
			],
			"stateMutability": "view",
			"type": "function"
		},
		{
			"inputs": [
				{
					"internalType": "address",
					"name": "from",
					"type": "address"
				},
				{
					"internalType": "address",
					"name": "to",
					"type": "address"
				},
				{
					"internalType": "uint256",
					"name": "tokenId",
					"type": "uint256"
				}
			],
			"name": "safeTransferFrom",
			"outputs": [],
			"stateMutability": "nonpayable",
			"type": "function"
		},
		{
			"inputs": [
				{
					"internalType": "address",
					"name": "from",
					"type": "address"
				},
				{
					"internalType": "address",
					"name": "to",
					"type": "address"
				},
				{
					"internalType": "uint256",
					"name": "tokenId",
					"type": "uint256"
				},
				{
					"internalType": "bytes",
					"name": "_data",
					"type": "bytes"
				}
			],
			"name": "safeTransferFrom",
			"outputs": [],
			"stateMutability": "nonpayable",
			"type": "function"
		},
		{
			"inputs": [
				{
					"internalType": "address",
					"name": "buyer",
					"type": "address"
				},
				{
					"internalType": "uint256",
					"name": "saleTicketId",
					"type": "uint256"
				}
			],
			"name": "secondaryTransferTicket",
			"outputs": [],
			"stateMutability": "nonpayable",
			"type": "function"
		},
		{
			"inputs": [
				{
					"internalType": "address",
					"name": "operator",
					"type": "address"
				},
				{
					"internalType": "bool",
					"name": "approved",
					"type": "bool"
				}
			],
			"name": "setApprovalForAll",
			"outputs": [],
			"stateMutability": "nonpayable",
			"type": "function"
		},
		{
			"inputs": [
				{
					"internalType": "uint256",
					"name": "ticketId",
					"type": "uint256"
				},
				{
					"internalType": "uint256",
					"name": "sellingPrice",
					"type": "uint256"
				},
				{
					"internalType": "address",
					"name": "operator",
					"type": "address"
				}
			],
			"name": "setSaleDetails",
			"outputs": [],
			"stateMutability": "nonpayable",
			"type": "function"
		},
		{
			"inputs": [
				{
					"internalType": "bytes4",
					"name": "interfaceId",
					"type": "bytes4"
				}
			],
			"name": "supportsInterface",
			"outputs": [
				{
					"internalType": "bool",
					"name": "",
					"type": "bool"
				}
			],
			"stateMutability": "view",
			"type": "function"
		},
		{
			"inputs": [],
			"name": "symbol",
			"outputs": [
				{
					"internalType": "string",
					"name": "",
					"type": "string"
				}
			],
			"stateMutability": "view",
			"type": "function"
		},
		{
			"inputs": [],
			"name": "ticketCounts",
			"outputs": [
				{
					"internalType": "uint256",
					"name": "",
					"type": "uint256"
				}
			],
			"stateMutability": "view",
			"type": "function"
		},
		{
			"inputs": [
				{
					"internalType": "uint256",
					"name": "tokenId",
					"type": "uint256"
				}
			],
			"name": "tokenURI",
			"outputs": [
				{
					"internalType": "string",
					"name": "",
					"type": "string"
				}
			],
			"stateMutability": "view",
			"type": "function"
		},
		{
			"inputs": [
				{
					"internalType": "address",
					"name": "from",
					"type": "address"
				},
				{
					"internalType": "address",
					"name": "to",
					"type": "address"
				},
				{
					"internalType": "uint256",
					"name": "tokenId",
					"type": "uint256"
				}
			],
			"name": "transferFrom",
			"outputs": [],
			"stateMutability": "nonpayable",
			"type": "function"
		},
		{
			"inputs": [
				{
					"internalType": "address",
					"name": "buyer",
					"type": "address"
				}
			],
			"name": "transferTicket",
			"outputs": [],
			"stateMutability": "nonpayable",
			"type": "function"
		}
	]
}